{
  "_format": "hh-sol-artifact-1",
  "contractName": "TickLens",
  "sourceName": "contracts/pangolinv2-periphery/lens/TickLens.sol",
  "abi": [
    {
      "inputs": [
        {
          "internalType": "address",
          "name": "pool",
          "type": "address"
        },
        {
          "internalType": "int16",
          "name": "tickBitmapIndex",
          "type": "int16"
        }
      ],
      "name": "getPopulatedTicksInWord",
      "outputs": [
        {
          "components": [
            {
              "internalType": "int24",
              "name": "tick",
              "type": "int24"
            },
            {
              "internalType": "int128",
              "name": "liquidityNet",
              "type": "int128"
            },
            {
              "internalType": "uint128",
              "name": "liquidityGross",
              "type": "uint128"
            }
          ],
          "internalType": "struct ITickLens.PopulatedTick[]",
          "name": "populatedTicks",
          "type": "tuple[]"
        }
      ],
      "stateMutability": "view",
      "type": "function"
    }
  ],
  "bytecode": "0x608060405234801561001057600080fd5b50610545806100206000396000f3fe608060405234801561001057600080fd5b506004361061002b5760003560e01c8063351fb47814610030575b600080fd5b61004361003e36600461033c565b610059565b604051610050919061046a565b60405180910390f35b60606000836001600160a01b0316635339c296846040518263ffffffff1660e01b815260040161008991906104db565b60206040518083038186803b1580156100a157600080fd5b505afa1580156100b5573d6000803e3d6000fd5b505050506040513d601f19601f820116820180604052508101906100d99190610452565b90506000805b610100811015610103576001811b8316156100fb576001909101905b6001016100df565b506000856001600160a01b031663d0c93a7c6040518163ffffffff1660e01b815260040160206040518083038186803b15801561013f57600080fd5b505afa158015610153573d6000803e3d6000fd5b505050506040513d601f19601f82011682018060405250810190610177919061037a565b90508167ffffffffffffffff8111801561019057600080fd5b506040519080825280602002602001820160405280156101ca57816020015b6101b76102e8565b8152602001906001900390816101af5790505b50935060005b6101008110156102de576001811b8416156102d65760405163f30dba9360e01b8152600187900b60020b60081b820183029060009081906001600160a01b038b169063f30dba93906102269086906004016104e9565b6101006040518083038186803b15801561023f57600080fd5b505afa158015610253573d6000803e3d6000fd5b505050506040513d601f19601f8201168201806040525081019061027791906103a2565b5050505050509150915060405180606001604052808460020b815260200182600f0b8152602001836fffffffffffffffffffffffffffffffff16815250888760019003975087815181106102c757fe5b60200260200101819052505050505b6001016101d0565b5050505092915050565b604080516060810182526000808252602082018190529181019190915290565b8051801515811461031857600080fd5b919050565b8051610318816104f7565b805163ffffffff8116811461031857600080fd5b6000806040838503121561034e578182fd5b8235610359816104f7565b91506020830135600181900b811461036f578182fd5b809150509250929050565b60006020828403121561038b578081fd5b81518060020b811461039b578182fd5b9392505050565b600080600080600080600080610100898b0312156103be578384fd5b88516fffffffffffffffffffffffffffffffff811681146103dd578485fd5b80985050602089015180600f0b81146103f4578485fd5b80975050604089015195506060890151945060808901518060060b8114610419578485fd5b935061042760a08a0161031d565b925061043560c08a01610328565b915061044360e08a01610308565b90509295985092959890939650565b600060208284031215610463578081fd5b5051919050565b602080825282518282018190526000919060409081850190868401855b828110156104ce578151805160020b855286810151600f0b878601528501516fffffffffffffffffffffffffffffffff168585015260609093019290850190600101610487565b5091979650505050505050565b60019190910b815260200190565b60029190910b815260200190565b6001600160a01b038116811461050c57600080fd5b5056fea26469706673582212202f0b7ab446483308d1910ad6e2193807e9f16d4f46e6c3edce7837221eda84f664736f6c63430007060033",
  "linkReferences": {},
  "deployedLinkReferences": {}
}