{
  "_format": "hh-sol-artifact-1",
  "contractName": "GovernorAssistant",
  "sourceName": "contracts/governor/GovernorAssistant.sol",
  "abi": [
    {
      "inputs": [
        {
          "internalType": "uint64",
          "name": "proposalId",
          "type": "uint64"
        }
      ],
      "name": "createProposal",
      "outputs": [
        {
          "internalType": "address",
          "name": "",
          "type": "address"
        }
      ],
      "stateMutability": "nonpayable",
      "type": "function"
    },
    {
      "inputs": [
        {
          "internalType": "uint64",
          "name": "proposalId",
          "type": "uint64"
        },
        {
          "internalType": "int64",
          "name": "nftId",
          "type": "int64"
        }
      ],
      "name": "createReceipt",
      "outputs": [
        {
          "internalType": "address",
          "name": "",
          "type": "address"
        }
      ],
      "stateMutability": "nonpayable",
      "type": "function"
    },
    {
      "inputs": [
        {
          "internalType": "address",
          "name": "deployer",
          "type": "address"
        },
        {
          "internalType": "uint64",
          "name": "proposalId",
          "type": "uint64"
        }
      ],
      "name": "locateProposal",
      "outputs": [
        {
          "internalType": "address",
          "name": "",
          "type": "address"
        }
      ],
      "stateMutability": "view",
      "type": "function"
    },
    {
      "inputs": [
        {
          "internalType": "address",
          "name": "deployer",
          "type": "address"
        },
        {
          "internalType": "uint64",
          "name": "proposalId",
          "type": "uint64"
        },
        {
          "internalType": "int64",
          "name": "nftId",
          "type": "int64"
        }
      ],
      "name": "locateReceipt",
      "outputs": [
        {
          "internalType": "address",
          "name": "",
          "type": "address"
        }
      ],
      "stateMutability": "view",
      "type": "function"
    }
  ],
  "bytecode": "0x608060405234801561001057600080fd5b50611c72806100206000396000f3fe608060405234801561001057600080fd5b506004361061004c5760003560e01c806338e3054714610051578063422da9541461008d5780639876dc21146100a0578063c29a22c4146100b3575b600080fd5b61006461005f36600461052d565b6100c6565b60405173ffffffffffffffffffffffffffffffffffffffff909116815260200160405180910390f35b61006461009b366004610570565b61021f565b6100646100ae36600461058b565b6102d2565b6100646100c13660046105be565b610438565b60008060ff60f81b30858560405160200161011392919060c092831b7fffffffffffffffff000000000000000000000000000000000000000000000000168152911b600882015260100190565b6040516020818303038152906040528051906020012060405180602001610139906104c1565b601f1982820381018352601f90910116604081815273ffffffffffffffffffffffffffffffffffffffff8b1660208301520160408051601f19818403018152908290526101899291602001610623565b604051602081830303815290604052805190602001206040516020016101fe94939291907fff0000000000000000000000000000000000000000000000000000000000000094909416845260609290921b6bffffffffffffffffffffffff191660018401526015830152603582015260550190565b60408051808303601f19018152919052805160209091012095945050505050565b6040517fffffffffffffffff00000000000000000000000000000000000000000000000060c083901b1660208201526000906102cc90602801604051602081830303815290604052805190602001206040518060200161027e906104cd565b601f1982820381018352601f9091011660408181523360208301520160408051601f19818403018152908290526102b89291602001610623565b6040516020818303038152906040526104ae565b92915050565b6040517fffffffffffffffff00000000000000000000000000000000000000000000000060c083901b16602082015260009081907fff000000000000000000000000000000000000000000000000000000000000009030906028016040516020818303038152906040528051906020012060405180602001610353906104cd565b601f1982820381018352601f90910116604081815273ffffffffffffffffffffffffffffffffffffffff8a1660208301520160408051601f19818403018152908290526103a39291602001610623565b6040516020818303038152906040528051906020012060405160200161041894939291907fff0000000000000000000000000000000000000000000000000000000000000094909416845260609290921b6bffffffffffffffffffffffff191660018401526015830152603582015260550190565b60408051808303601f190181529190528051602090910120949350505050565b60006104a7838360405160200161048192919060c092831b7fffffffffffffffff000000000000000000000000000000000000000000000000168152911b600882015260100190565b604051602081830303815290604052805190602001206040518060200161027e906104c1565b9392505050565b6000828251602084016000f59392505050565b605c8061064183390190565b6115a08061069d83390190565b803573ffffffffffffffffffffffffffffffffffffffff811681146104fe57600080fd5b919050565b803567ffffffffffffffff811681146104fe57600080fd5b8035600781900b81146104fe57600080fd5b60008060006060848603121561054257600080fd5b61054b846104da565b925061055960208501610503565b91506105676040850161051b565b90509250925092565b60006020828403121561058257600080fd5b6104a782610503565b6000806040838503121561059e57600080fd5b6105a7836104da565b91506105b560208401610503565b90509250929050565b600080604083850312156105d157600080fd5b6105da83610503565b91506105b56020840161051b565b6000815160005b8181101561060957602081850181015186830152016105ef565b81811115610618576000828601525b509290920192915050565b600061063861063283866105e8565b846105e8565b94935050505056fe6080604052348015600f57600080fd5b50603f80601d6000396000f3fe6080604052600080fdfea2646970667358221220c8f16fa499cfeed7e028a91fa7e2c54d4d6db833cbc7847f91d70841eab2210064736f6c634300080f003360a060405234801561001057600080fd5b506040516115a03803806115a083398101604081905261002f91610040565b6001600160a01b0316608052610070565b60006020828403121561005257600080fd5b81516001600160a01b038116811461006957600080fd5b9392505050565b6080516114f36100ad6000396000818160920152818161018a015281816102190152818161047d0152818161089d015261092301526114f36000f3fe6080604052600436106100745760003560e01c8063a78cac151161004e578063a78cac1514610113578063b9e2bea014610128578063be7087871461014a578063d26424951461015f57600080fd5b80632a0acc6a146100805780632c55132a146100d157806363ec07c0146100f357600080fd5b3661007b57005b600080fd5b34801561008c57600080fd5b506100b47f000000000000000000000000000000000000000000000000000000000000000081565b6040516001600160a01b0390911681526020015b60405180910390f35b3480156100dd57600080fd5b506100f16100ec366004610c05565b61017f565b005b3480156100ff57600080fd5b506100f161010e366004610f58565b61020e565b34801561011f57600080fd5b506100f1610472565b34801561013457600080fd5b5061013d6104f7565b6040516100c891906111ca565b34801561015657600080fd5b506100f1610892565b34801561016b57600080fd5b506100f161017a366004611303565b610918565b336001600160a01b037f000000000000000000000000000000000000000000000000000000000000000016146101c857604051634ca8886760e01b815260040160405180910390fd5b6005805464ffffffffff9092166a0100000000000000000000027fffffffffffffffffffffffffffffffffff0000000000ffffffffffffffffffff909216919091179055565b336001600160a01b037f0000000000000000000000000000000000000000000000000000000000000000161461025757604051634ca8886760e01b815260040160405180910390fd5b805180518291600091610271918391602090910190610a03565b50602082810151805161028a9260018501920190610a80565b50604082015180516102a6916002840191602090910190610abb565b50606082015180516102c2916003840191602090910190610b0d565b50608082015160048201805460a085015160c08601516bffffffffffffffffffffffff90811674010000000000000000000000000000000000000000026001600160a01b039190921668010000000000000000027fffffffffffffffffffffffff000000000000000000000000000000000000000090931667ffffffffffffffff90951694909417919091179290921691909117905560e082015160059091018054610100840151610120850151610140860151610160909601511515700100000000000000000000000000000000027fffffffffffffffffffffffffffffff00ffffffffffffffffffffffffffffffff9615156f01000000000000000000000000000000027fffffffffffffffffffffffffffffffff00ffffffffffffffffffffffffffffff64ffffffffff9384166a010000000000000000000002167fffffffffffffffffffffffffffffffff000000000000ffffffffffffffffffff94841665010000000000027fffffffffffffffffffffffffffffffffffffffffffff000000000000000000009096169390971692909217939093179190911693909317929092179290921617905550565b336001600160a01b037f000000000000000000000000000000000000000000000000000000000000000016146104bb57604051634ca8886760e01b815260040160405180910390fd5b600580547fffffffffffffffffffffffffffffffff00ffffffffffffffffffffffffffffff166f01000000000000000000000000000000179055565b60408051610180810182526060808252602082018190529181018290528181019190915260006080820181905260a0820181905260c0820181905260e0820181905261010082018190526101208201819052610140820181905261016082015260408051600080546101a060208202840181019094526101808301818152929391928492909184918401828280156105b857602002820191906000526020600020905b81546001600160a01b0316815260019091019060200180831161059a575b505050505081526020016001820180548060200260200160405190810160405280929190818152602001828054801561061057602002820191906000526020600020905b8154815260200190600101908083116105fc575b5050505050815260200160028201805480602002602001604051908101604052809291908181526020016000905b828210156106ea57838290600052602060002001805461065d90611336565b80601f016020809104026020016040519081016040528092919081815260200182805461068990611336565b80156106d65780601f106106ab576101008083540402835291602001916106d6565b820191906000526020600020905b8154815290600101906020018083116106b957829003601f168201915b50505050508152602001906001019061063e565b50505050815260200160038201805480602002602001604051908101604052809291908181526020016000905b828210156107c357838290600052602060002001805461073690611336565b80601f016020809104026020016040519081016040528092919081815260200182805461076290611336565b80156107af5780601f10610784576101008083540402835291602001916107af565b820191906000526020600020905b81548152906001019060200180831161079257829003601f168201915b505050505081526020019060010190610717565b505050908252506004820154600781900b60208301526bffffffffffffffffffffffff680100000000000000008204811660408401527401000000000000000000000000000000000000000090910416606082015260059091015464ffffffffff8082166080840152650100000000008204811660a08401526a010000000000000000000082041660c083015260ff6f0100000000000000000000000000000082048116151560e084015270010000000000000000000000000000000090910416151561010090910152919050565b336001600160a01b037f000000000000000000000000000000000000000000000000000000000000000016146108db57604051634ca8886760e01b815260040160405180910390fd5b600580547fffffffffffffffffffffffffffffff00ffffffffffffffffffffffffffffffff16700100000000000000000000000000000000179055565b336001600160a01b037f0000000000000000000000000000000000000000000000000000000000000000161461096157604051634ca8886760e01b815260040160405180910390fd5b80156109c857600480548391906008906109969084906801000000000000000090046bffffffffffffffffffffffff16611370565b92506101000a8154816bffffffffffffffffffffffff02191690836bffffffffffffffffffffffff1602179055505050565b600480548391906014906109969084907401000000000000000000000000000000000000000090046bffffffffffffffffffffffff16611370565b828054828255906000526020600020908101928215610a70579160200282015b82811115610a7057825182547fffffffffffffffffffffffff0000000000000000000000000000000000000000166001600160a01b03909116178255602090920191600190910190610a23565b50610a7c929150610b5f565b5090565b828054828255906000526020600020908101928215610a70579160200282015b82811115610a70578251825591602001919060010190610aa0565b828054828255906000526020600020908101928215610b01579160200282015b82811115610b015782518290610af190826113fd565b5091602001919060010190610adb565b50610a7c929150610b74565b828054828255906000526020600020908101928215610b53579160200282015b82811115610b535782518290610b4390826113fd565b5091602001919060010190610b2d565b50610a7c929150610b91565b5b80821115610a7c5760008155600101610b60565b80821115610a7c576000610b888282610bae565b50600101610b74565b80821115610a7c576000610ba58282610bae565b50600101610b91565b508054610bba90611336565b6000825580601f10610bca575050565b601f016020900490600052602060002090810190610be89190610b5f565b50565b803564ffffffffff81168114610c0057600080fd5b919050565b600060208284031215610c1757600080fd5b610c2082610beb565b9392505050565b634e487b7160e01b600052604160045260246000fd5b604051610180810167ffffffffffffffff81118282101715610c6157610c61610c27565b60405290565b604051601f8201601f1916810167ffffffffffffffff81118282101715610c9057610c90610c27565b604052919050565b600067ffffffffffffffff821115610cb257610cb2610c27565b5060051b60200190565b600082601f830112610ccd57600080fd5b81356020610ce2610cdd83610c98565b610c67565b82815260059290921b84018101918181019086841115610d0157600080fd5b8286015b84811015610d325780356001600160a01b0381168114610d255760008081fd5b8352918301918301610d05565b509695505050505050565b600082601f830112610d4e57600080fd5b81356020610d5e610cdd83610c98565b82815260059290921b84018101918181019086841115610d7d57600080fd5b8286015b84811015610d325780358352918301918301610d81565b600067ffffffffffffffff831115610db257610db2610c27565b610dc56020601f19601f86011601610c67565b9050828152838383011115610dd957600080fd5b828260208301376000602084830101529392505050565b600082601f830112610e0157600080fd5b81356020610e11610cdd83610c98565b82815260059290921b84018101918181019086841115610e3057600080fd5b8286015b84811015610d3257803567ffffffffffffffff811115610e545760008081fd5b8701603f81018913610e665760008081fd5b610e77898683013560408401610d98565b845250918301918301610e34565b600082601f830112610e9657600080fd5b81356020610ea6610cdd83610c98565b82815260059290921b84018101918181019086841115610ec557600080fd5b8286015b84811015610d3257803567ffffffffffffffff811115610ee95760008081fd5b8701603f81018913610efb5760008081fd5b610f0c898683013560408401610d98565b845250918301918301610ec9565b8035600781900b8114610c0057600080fd5b80356bffffffffffffffffffffffff81168114610c0057600080fd5b80358015158114610c0057600080fd5b600060208284031215610f6a57600080fd5b813567ffffffffffffffff80821115610f8257600080fd5b908301906101808286031215610f9757600080fd5b610f9f610c3d565b823582811115610fae57600080fd5b610fba87828601610cbc565b825250602083013582811115610fcf57600080fd5b610fdb87828601610d3d565b602083015250604083013582811115610ff357600080fd5b610fff87828601610df0565b60408301525060608301358281111561101757600080fd5b61102387828601610e85565b60608301525061103560808401610f1a565b608082015261104660a08401610f2c565b60a082015261105760c08401610f2c565b60c082015261106860e08401610beb565b60e0820152610100915061107d828401610beb565b828201526101209150611091828401610beb565b8282015261014091506110a5828401610f48565b8282015261016091506110b9828401610f48565b91810191909152949350505050565b600081518084526020808501945080840160005b838110156111015781516001600160a01b0316875295820195908201906001016110dc565b509495945050505050565b600081518084526020808501945080840160005b8381101561110157815187529582019590820190600101611120565b600081518084526020808501808196508360051b810191508286016000805b868110156111bc578385038a5282518051808752835b8181101561118c578281018901518882018a01528801611171565b8181111561119c578489838a0101525b509a87019a601f01601f191695909501860194509185019160010161115b565b509298975050505050505050565b60208152600082516101808060208501526111e96101a08501836110c8565b91506020850151601f1980868503016040870152611207848361110c565b93506040870151915080868503016060870152611224848361113c565b9350606087015191508086850301608087015250611242838261113c565b925050608085015161125960a086018260070b9052565b5060a08501516bffffffffffffffffffffffff811660c08601525060c08501516bffffffffffffffffffffffff811660e08601525060e08501516101006112a88187018364ffffffffff169052565b86015190506101206112c28682018364ffffffffff169052565b86015190506101406112dc8682018364ffffffffff169052565b86015190506101606112f18682018315159052565b90950151151593019290925250919050565b6000806040838503121561131657600080fd5b61131f83610f2c565b915061132d60208401610f48565b90509250929050565b600181811c9082168061134a57607f821691505b60208210810361136a57634e487b7160e01b600052602260045260246000fd5b50919050565b60006bffffffffffffffffffffffff8083168185168083038211156113a557634e487b7160e01b600052601160045260246000fd5b01949350505050565b601f8211156113f857600081815260208120601f850160051c810160208610156113d55750805b601f850160051c820191505b818110156113f4578281556001016113e1565b5050505b505050565b815167ffffffffffffffff81111561141757611417610c27565b61142b816114258454611336565b846113ae565b602080601f83116001811461146057600084156114485750858301515b600019600386901b1c1916600185901b1785556113f4565b600085815260208120601f198616915b8281101561148f57888601518255948401946001909101908401611470565b50858210156114ad5787850151600019600388901b60f8161c191681555b5050505050600190811b0190555056fea26469706673582212208c351792f3520b9a4d704c93b10f655bb4a7d0a4bcb2ef9bb57ddc2ed65aff1764736f6c634300080f0033a2646970667358221220ee99a0560d646e10c80ca6dfe63122134cf7339a6b38aaa4244f71346719f91464736f6c634300080f0033",
  "linkReferences": {},
  "deployedLinkReferences": {}
}