{
  "_format": "hh-sol-artifact-1",
  "contractName": "GovernorPango",
  "sourceName": "contracts/governor/GovernorPango.sol",
  "abi": [
    {
      "inputs": [
        {
          "internalType": "address",
          "name": "_TIMELOCK",
          "type": "address"
        },
        {
          "internalType": "address",
          "name": "_NFT_TOKEN",
          "type": "address"
        },
        {
          "internalType": "address",
          "name": "_NFT_CONTRACT",
          "type": "address"
        },
        {
          "internalType": "uint96",
          "name": "_PROPOSAL_THRESHOLD",
          "type": "uint96"
        },
        {
          "internalType": "uint96",
          "name": "_PROPOSAL_THRESHOLD_MIN",
          "type": "uint96"
        },
        {
          "internalType": "uint96",
          "name": "_PROPOSAL_THRESHOLD_MAX",
          "type": "uint96"
        }
      ],
      "stateMutability": "nonpayable",
      "type": "constructor"
    },
    {
      "inputs": [],
      "name": "IllegalVote",
      "type": "error"
    },
    {
      "inputs": [],
      "name": "InsufficientVotes",
      "type": "error"
    },
    {
      "inputs": [],
      "name": "InvalidAction",
      "type": "error"
    },
    {
      "inputs": [],
      "name": "InvalidNFT",
      "type": "error"
    },
    {
      "inputs": [],
      "name": "InvalidOwner",
      "type": "error"
    },
    {
      "inputs": [],
      "name": "InvalidState",
      "type": "error"
    },
    {
      "inputs": [],
      "name": "NonSuccess",
      "type": "error"
    },
    {
      "anonymous": false,
      "inputs": [
        {
          "indexed": false,
          "internalType": "uint64",
          "name": "id",
          "type": "uint64"
        }
      ],
      "name": "ProposalCanceled",
      "type": "event"
    },
    {
      "anonymous": false,
      "inputs": [
        {
          "indexed": false,
          "internalType": "uint64",
          "name": "id",
          "type": "uint64"
        },
        {
          "indexed": false,
          "internalType": "int64",
          "name": "proposer",
          "type": "int64"
        },
        {
          "indexed": false,
          "internalType": "address[]",
          "name": "targets",
          "type": "address[]"
        },
        {
          "indexed": false,
          "internalType": "uint256[]",
          "name": "values",
          "type": "uint256[]"
        },
        {
          "indexed": false,
          "internalType": "string[]",
          "name": "signatures",
          "type": "string[]"
        },
        {
          "indexed": false,
          "internalType": "bytes[]",
          "name": "calldatas",
          "type": "bytes[]"
        },
        {
          "indexed": false,
          "internalType": "uint40",
          "name": "startTime",
          "type": "uint40"
        },
        {
          "indexed": false,
          "internalType": "uint40",
          "name": "endTime",
          "type": "uint40"
        },
        {
          "indexed": false,
          "internalType": "string",
          "name": "description",
          "type": "string"
        }
      ],
      "name": "ProposalCreated",
      "type": "event"
    },
    {
      "anonymous": false,
      "inputs": [
        {
          "indexed": false,
          "internalType": "uint64",
          "name": "id",
          "type": "uint64"
        }
      ],
      "name": "ProposalExecuted",
      "type": "event"
    },
    {
      "anonymous": false,
      "inputs": [
        {
          "indexed": false,
          "internalType": "uint64",
          "name": "id",
          "type": "uint64"
        },
        {
          "indexed": false,
          "internalType": "uint40",
          "name": "eta",
          "type": "uint40"
        }
      ],
      "name": "ProposalQueued",
      "type": "event"
    },
    {
      "anonymous": false,
      "inputs": [
        {
          "indexed": false,
          "internalType": "uint96",
          "name": "newProposalThreshold",
          "type": "uint96"
        }
      ],
      "name": "ProposalThresholdChanged",
      "type": "event"
    },
    {
      "anonymous": false,
      "inputs": [
        {
          "indexed": false,
          "internalType": "uint64",
          "name": "proposalId",
          "type": "uint64"
        },
        {
          "indexed": false,
          "internalType": "bool",
          "name": "support",
          "type": "bool"
        },
        {
          "indexed": false,
          "internalType": "uint96",
          "name": "votes",
          "type": "uint96"
        }
      ],
      "name": "VoteCast",
      "type": "event"
    },
    {
      "anonymous": false,
      "inputs": [
        {
          "indexed": false,
          "internalType": "uint40",
          "name": "newVotingDelay",
          "type": "uint40"
        }
      ],
      "name": "VotingDelayChanged",
      "type": "event"
    },
    {
      "anonymous": false,
      "inputs": [
        {
          "indexed": false,
          "internalType": "uint40",
          "name": "newVotingPeriod",
          "type": "uint40"
        }
      ],
      "name": "VotingPeriodChanged",
      "type": "event"
    },
    {
      "inputs": [],
      "name": "NFT_CONTRACT",
      "outputs": [
        {
          "internalType": "address",
          "name": "",
          "type": "address"
        }
      ],
      "stateMutability": "view",
      "type": "function"
    },
    {
      "inputs": [],
      "name": "NFT_TOKEN",
      "outputs": [
        {
          "internalType": "address",
          "name": "",
          "type": "address"
        }
      ],
      "stateMutability": "view",
      "type": "function"
    },
    {
      "inputs": [],
      "name": "PROPOSAL_THRESHOLD",
      "outputs": [
        {
          "internalType": "uint96",
          "name": "",
          "type": "uint96"
        }
      ],
      "stateMutability": "view",
      "type": "function"
    },
    {
      "inputs": [],
      "name": "PROPOSAL_THRESHOLD_MAX",
      "outputs": [
        {
          "internalType": "uint96",
          "name": "",
          "type": "uint96"
        }
      ],
      "stateMutability": "view",
      "type": "function"
    },
    {
      "inputs": [],
      "name": "PROPOSAL_THRESHOLD_MIN",
      "outputs": [
        {
          "internalType": "uint96",
          "name": "",
          "type": "uint96"
        }
      ],
      "stateMutability": "view",
      "type": "function"
    },
    {
      "inputs": [],
      "name": "TIMELOCK",
      "outputs": [
        {
          "internalType": "contract ITimelock",
          "name": "",
          "type": "address"
        }
      ],
      "stateMutability": "view",
      "type": "function"
    },
    {
      "inputs": [],
      "name": "VOTING_DELAY",
      "outputs": [
        {
          "internalType": "uint40",
          "name": "",
          "type": "uint40"
        }
      ],
      "stateMutability": "view",
      "type": "function"
    },
    {
      "inputs": [],
      "name": "VOTING_PERIOD",
      "outputs": [
        {
          "internalType": "uint40",
          "name": "",
          "type": "uint40"
        }
      ],
      "stateMutability": "view",
      "type": "function"
    },
    {
      "inputs": [],
      "name": "__acceptAdmin",
      "outputs": [],
      "stateMutability": "nonpayable",
      "type": "function"
    },
    {
      "inputs": [
        {
          "internalType": "uint96",
          "name": "newProposalThreshold",
          "type": "uint96"
        }
      ],
      "name": "__setProposalThreshold",
      "outputs": [],
      "stateMutability": "nonpayable",
      "type": "function"
    },
    {
      "inputs": [
        {
          "internalType": "uint40",
          "name": "newVotingDelay",
          "type": "uint40"
        }
      ],
      "name": "__setVotingDelay",
      "outputs": [],
      "stateMutability": "nonpayable",
      "type": "function"
    },
    {
      "inputs": [
        {
          "internalType": "uint40",
          "name": "newVotingPeriod",
          "type": "uint40"
        }
      ],
      "name": "__setVotingPeriod",
      "outputs": [],
      "stateMutability": "nonpayable",
      "type": "function"
    },
    {
      "inputs": [
        {
          "internalType": "uint64",
          "name": "proposalId",
          "type": "uint64"
        }
      ],
      "name": "cancel",
      "outputs": [],
      "stateMutability": "nonpayable",
      "type": "function"
    },
    {
      "inputs": [
        {
          "internalType": "uint64",
          "name": "proposalId",
          "type": "uint64"
        },
        {
          "internalType": "bool",
          "name": "support",
          "type": "bool"
        },
        {
          "internalType": "int64",
          "name": "nftId",
          "type": "int64"
        }
      ],
      "name": "castVote",
      "outputs": [],
      "stateMutability": "nonpayable",
      "type": "function"
    },
    {
      "inputs": [
        {
          "internalType": "uint64",
          "name": "proposalId",
          "type": "uint64"
        }
      ],
      "name": "execute",
      "outputs": [],
      "stateMutability": "payable",
      "type": "function"
    },
    {
      "inputs": [
        {
          "internalType": "uint64",
          "name": "proposalId",
          "type": "uint64"
        }
      ],
      "name": "locateProposal",
      "outputs": [
        {
          "internalType": "address",
          "name": "",
          "type": "address"
        }
      ],
      "stateMutability": "view",
      "type": "function"
    },
    {
      "inputs": [
        {
          "internalType": "uint64",
          "name": "proposalId",
          "type": "uint64"
        },
        {
          "internalType": "int64",
          "name": "nftId",
          "type": "int64"
        }
      ],
      "name": "locateReceipt",
      "outputs": [
        {
          "internalType": "address",
          "name": "",
          "type": "address"
        }
      ],
      "stateMutability": "view",
      "type": "function"
    },
    {
      "inputs": [],
      "name": "proposalCount",
      "outputs": [
        {
          "internalType": "uint256",
          "name": "",
          "type": "uint256"
        }
      ],
      "stateMutability": "view",
      "type": "function"
    },
    {
      "inputs": [
        {
          "internalType": "int64",
          "name": "",
          "type": "int64"
        }
      ],
      "name": "proposalTimeout",
      "outputs": [
        {
          "internalType": "uint40",
          "name": "",
          "type": "uint40"
        }
      ],
      "stateMutability": "view",
      "type": "function"
    },
    {
      "inputs": [
        {
          "internalType": "address[]",
          "name": "targets",
          "type": "address[]"
        },
        {
          "internalType": "uint256[]",
          "name": "values",
          "type": "uint256[]"
        },
        {
          "internalType": "string[]",
          "name": "signatures",
          "type": "string[]"
        },
        {
          "internalType": "bytes[]",
          "name": "calldatas",
          "type": "bytes[]"
        },
        {
          "internalType": "string",
          "name": "description",
          "type": "string"
        },
        {
          "internalType": "int64",
          "name": "nftId",
          "type": "int64"
        }
      ],
      "name": "propose",
      "outputs": [
        {
          "internalType": "uint64",
          "name": "proposalId",
          "type": "uint64"
        }
      ],
      "stateMutability": "nonpayable",
      "type": "function"
    },
    {
      "inputs": [
        {
          "internalType": "uint64",
          "name": "proposalId",
          "type": "uint64"
        }
      ],
      "name": "queue",
      "outputs": [],
      "stateMutability": "nonpayable",
      "type": "function"
    },
    {
      "inputs": [
        {
          "internalType": "uint64",
          "name": "proposalId",
          "type": "uint64"
        }
      ],
      "name": "state",
      "outputs": [
        {
          "internalType": "enum GovernorPango.ProposalState",
          "name": "",
          "type": "uint8"
        }
      ],
      "stateMutability": "view",
      "type": "function"
    },
    {
      "stateMutability": "payable",
      "type": "receive"
    }
  ],
  "bytecode": "0x610120604052600080546001600160501b0319166703f48000000151801790553480156200002c57600080fd5b5060405162005303380380620053038339810160408190526200004f9162000177565b806001600160601b0316826001600160601b031611156200008357604051634a7f394f60e01b815260040160405180910390fd5b816001600160601b0316836001600160601b03161015620000b757604051634a7f394f60e01b815260040160405180910390fd5b806001600160601b0316836001600160601b03161115620000eb57604051634a7f394f60e01b815260040160405180910390fd5b6001600160a01b0395861660c05293851660e052919093166101005260008054600160501b600160b01b0319166a01000000000000000000006001600160601b039586160217905582166080521660a052620001f8565b80516001600160a01b03811681146200015a57600080fd5b919050565b80516001600160601b03811681146200015a57600080fd5b60008060008060008060c087890312156200019157600080fd5b6200019c8762000142565b9550620001ac6020880162000142565b9450620001bc6040880162000142565b9350620001cc606088016200015f565b9250620001dc608088016200015f565b9150620001ec60a088016200015f565b90509295509295509295565b60805160a05160c05160e051610100516150646200029f6000396000818161025f0152611c3d0152600081816102100152611b590152600081816103d4015281816107fd01528181610d890152818161111b01528181611446015281816115d2015281816117820152818161190401528181611a9a01528181611e390152611f490152600081816101b8015261182101526000818161033a01526117c301526150646000f3fe608060405260043610620001975760003560e01c8063926c46b211620000db578063c1fe878c1162000089578063e907dc811162000060578063e907dc81146200052b578063fc45ddcd1462000550578063ffc7397b146200057557600080fd5b8063c1fe878c14620004bf578063d6159fe514620004e4578063da35c664146200050457600080fd5b8063b1610d7e11620000be578063b1610d7e1462000450578063b590be771462000490578063b9a6196114620004a757600080fd5b8063926c46b214620003f6578063a6c26603146200041b57600080fd5b80632df23d1511620001455780636b466177116200011c5780636b466177146200035c57806370323bdb14620003815780637aadef8b14620003c057600080fd5b80632df23d1514620002cd5780634c125e7914620003015780635ad77de6146200032657600080fd5b80631fda9a02116200017a5780631fda9a02146200024b5780632b011e2414620002815780632d4c7bd314620002a857600080fd5b8063176ed5ad14620001a45780631a32af0214620001fc57600080fd5b366200019f57005b600080fd5b348015620001b157600080fd5b50620001da7f000000000000000000000000000000000000000000000000000000000000000081565b6040516bffffffffffffffffffffffff90911681526020015b60405180910390f35b3480156200020957600080fd5b50620002327f000000000000000000000000000000000000000000000000000000000000000081565b6040516001600160a01b039091168152602001620001f3565b3480156200025857600080fd5b50620002327f000000000000000000000000000000000000000000000000000000000000000081565b3480156200028e57600080fd5b50620002a6620002a03660046200218a565b620005ad565b005b348015620002b557600080fd5b50620002a6620002c7366004620021f0565b620007f2565b348015620002da57600080fd5b50620002f2620002ec36600462002210565b6200090a565b604051620001f3919062002246565b3480156200030e57600080fd5b50620002a66200032036600462002210565b6200098f565b3480156200033357600080fd5b50620001da7f000000000000000000000000000000000000000000000000000000000000000081565b3480156200036957600080fd5b50620002326200037b36600462002210565b62000b82565b3480156200038e57600080fd5b50620003a6620003a036600462002651565b62000cd6565b60405167ffffffffffffffff9091168152602001620001f3565b348015620003cd57600080fd5b50620002327f000000000000000000000000000000000000000000000000000000000000000081565b3480156200040357600080fd5b50620002a66200041536600462002210565b6200105b565b3480156200042857600080fd5b50600054620001da906a010000000000000000000090046bffffffffffffffffffffffff1681565b3480156200045d57600080fd5b50600054620004799065010000000000900464ffffffffff1681565b60405164ffffffffff9091168152602001620001f3565b620002a6620004a136600462002210565b62001322565b348015620004b457600080fd5b50620002a6620015d0565b348015620004cc57600080fd5b5062000232620004de36600462002744565b62001647565b348015620004f157600080fd5b50600054620004799064ffffffffff1681565b3480156200051157600080fd5b506200051c60015481565b604051908152602001620001f3565b3480156200053857600080fd5b50620002a66200054a3660046200279d565b62001777565b3480156200055d57600080fd5b50620002a66200056f366004620021f0565b620018f9565b3480156200058257600080fd5b506200047962000594366004620027bd565b60026020526000908152604090205464ffffffffff1681565b6000620005ba8462000b82565b90506000816001600160a01b031663b9e2bea06040518163ffffffff1660e01b8152600401600060405180830381865afa158015620005fd573d6000803e3d6000fd5b505050506040513d6000823e601f3d908101601f1916820160405262000627919081019062002a84565b905060016200063682620019e6565b60078111156200064a576200064a62002230565b14620006695760405163baf3f0f760e01b815260040160405180910390fd5b620006748362001b52565b600062000686848360e0015162001bc3565b9050806bffffffffffffffffffffffff16600003620006b857604051633048076b60e11b815260040160405180910390fd5b6000620006c6878662001ce6565b6001600160a01b03160362000707576040517f667a709a00000000000000000000000000000000000000000000000000000000815260040160405180910390fd5b6040517fd26424950000000000000000000000000000000000000000000000000000000081526bffffffffffffffffffffffff8216600482015285151560248201526001600160a01b0384169063d264249590604401600060405180830381600087803b1580156200077857600080fd5b505af11580156200078d573d6000803e3d6000fd5b50506040805167ffffffffffffffff8a16815288151560208201526bffffffffffffffffffffffff85168183015290517fab2f5ddd7116794a68bdc6c3e14b18b5888ce4f48fdea983f4a1032a24a7989b9350908190036060019150a1505050505050565b336001600160a01b037f000000000000000000000000000000000000000000000000000000000000000016146200083c57604051634a7f394f60e01b815260040160405180910390fd5b6203f4808164ffffffffff1610156200086857604051634a7f394f60e01b815260040160405180910390fd5b62278d008164ffffffffff1611156200089457604051634a7f394f60e01b815260040160405180910390fd5b600080547fffffffffffffffffffffffffffffffffffffffffffff0000000000ffffffffff166501000000000064ffffffffff8416908102919091179091556040519081527fc6bdba91ad0eaeaaa3026c197783f40dff7571fd0e71402de571b9c508329db6906020015b60405180910390a150565b6000620009896200091b8362000b82565b6001600160a01b031663b9e2bea06040518163ffffffff1660e01b8152600401600060405180830381865afa15801562000959573d6000803e3d6000fd5b505050506040513d6000823e601f3d908101601f1916820160405262000983919081019062002a84565b620019e6565b92915050565b60006200099c8262000b82565b90506000816001600160a01b031663b9e2bea06040518163ffffffff1660e01b8152600401600060405180830381865afa158015620009df573d6000803e3d6000fd5b505050506040513d6000823e601f3d908101601f1916820160405262000a09919081019062002a84565b9050600062000a1882620019e6565b9050600781600781111562000a315762000a3162002230565b0362000a505760405163baf3f0f760e01b815260040160405180910390fd5b6000600a9054906101000a90046bffffffffffffffffffffffff166bffffffffffffffffffffffff1662000a8983608001514262001bc3565b6bffffffffffffffffffffffff161062000ae857600081600781111562000ab45762000ab462002230565b0362000acf5762000ac9826080015162001b52565b62000ae8565b60405163baf3f0f760e01b815260040160405180910390fd5b826001600160a01b031663be7087876040518163ffffffff1660e01b8152600401600060405180830381600087803b15801562000b2457600080fd5b505af115801562000b39573d6000803e3d6000fd5b505060405167ffffffffffffffff871681527fe5c6a12e7989e74f4c07006b06767eae6da096502bba0f69213882f71242aab2925060200190505b60405180910390a150505050565b6040517fffffffffffffffff00000000000000000000000000000000000000000000000060c083901b16602082015260009081907fff00000000000000000000000000000000000000000000000000000000000000903090602801604051602081830303815290604052805190602001206040518060200162000c05906200212c565b601f1982820381018352601f9091011660408181523060208301520160408051601f198184030181529082905262000c41929160200162002c15565b6040516020818303038152906040528051906020012060405160200162000cb794939291907fff0000000000000000000000000000000000000000000000000000000000000094909416845260609290921b6bffffffffffffffffffffffff191660018401526015830152603582015260550190565b60408051601f1981840301815291905280516020909101209392505050565b60008551875114158062000cec57508451875114155b8062000cfa57508351875114155b1562000d1957604051634a7f394f60e01b815260040160405180910390fd5b600a8751111562000d3d57604051634a7f394f60e01b815260040160405180910390fd5b62000d488262001b52565b6000805462000d5f9064ffffffffff164262002c5e565b600080549192509062000d839065010000000000900464ffffffffff168362002c5e565b905060007f00000000000000000000000000000000000000000000000000000000000000006001600160a01b0316636a42b8f86040518163ffffffff1660e01b8152600401602060405180830381865afa15801562000de6573d6000803e3d6000fd5b505050506040513d601f19601f8201168201806040525081019062000e0c919062002c81565b60005462000e2d9064ffffffffff6501000000000082048116911662002c5e565b62000e39919062002c5e565b6000549091506a010000000000000000000090046bffffffffffffffffffffffff1662000e728662000e6c844262002c9b565b62001bc3565b6bffffffffffffffffffffffff16101562000ea057604051633048076b60e11b815260040160405180910390fd5b600785900b60009081526002602052604090205464ffffffffff1642101562000edc57604051633048076b60e11b815260040160405180910390fd5b62000ee8814262002c5e565b600786900b6000908152600260205260408120805464ffffffffff191664ffffffffff93909316929092179091556001805490919062000f289062002cc4565b91829055506040805161018081018252600060a0820181905260c08201819052610120820181905261014082018190526101608201528c8152602081018c90529081018a905260608101899052600787900b608082015264ffffffffff85811660e0830152841661010082015290945062000fa38562001d99565b6001600160a01b03166363ec07c0826040518263ffffffff1660e01b815260040162000fd0919062002dfe565b600060405180830381600087803b15801562000feb57600080fd5b505af115801562001000573d6000803e3d6000fd5b505050507f7689866c2f91dc973af19b43fae157bc1fb57dfc89a7f239fc56bf17d1447dea85878d8d8d8d8a8a8f604051620010459998979695949392919062002f44565b60405180910390a1505050509695505050505050565b6000620010688262000b82565b90506000816001600160a01b031663b9e2bea06040518163ffffffff1660e01b8152600401600060405180830381865afa158015620010ab573d6000803e3d6000fd5b505050506040513d6000823e601f3d908101601f19168201604052620010d5919081019062002a84565b90506004620010e482620019e6565b6007811115620010f857620010f862002230565b14620011175760405163baf3f0f760e01b815260040160405180910390fd5b60007f00000000000000000000000000000000000000000000000000000000000000006001600160a01b0316636a42b8f86040518163ffffffff1660e01b8152600401602060405180830381865afa15801562001178573d6000803e3d6000fd5b505050506040513d601f19601f820116820180604052508101906200119e919062002c81565b620011aa904262002ff1565b6040517f2c55132a00000000000000000000000000000000000000000000000000000000815264ffffffffff821660048201529091506001600160a01b03841690632c55132a90602401600060405180830381600087803b1580156200120f57600080fd5b505af115801562001224573d6000803e3d6000fd5b50508351519150600090505b81811015620012d157620012c8846000015182815181106200125657620012566200300c565b6020026020010151856020015183815181106200127757620012776200300c565b6020026020010151866040015184815181106200129857620012986200300c565b602002602001015187606001518581518110620012b957620012b96200300c565b60200260200101518762001e37565b60010162001230565b506040805167ffffffffffffffff8716815264ffffffffff841660208201527ffd77b3148cb69f934b0fb64fb5f6dbc650c23d1aaaf91d12bb52d78923c41308910160405180910390a15050505050565b60006200132f8262000b82565b90506000816001600160a01b031663b9e2bea06040518163ffffffff1660e01b8152600401600060405180830381865afa15801562001372573d6000803e3d6000fd5b505050506040513d6000823e601f3d908101601f191682016040526200139c919081019062002a84565b90506005620013ab82620019e6565b6007811115620013bf57620013bf62002230565b14620013de5760405163baf3f0f760e01b815260040160405180910390fd5b816001600160a01b031663a78cac156040518163ffffffff1660e01b8152600401600060405180830381600087803b1580156200141a57600080fd5b505af11580156200142f573d6000803e3d6000fd5b50508251519150600090505b8181101562001594577f00000000000000000000000000000000000000000000000000000000000000006001600160a01b0316630825f38f846020015183815181106200148c576200148c6200300c565b602002602001015185600001518481518110620014ad57620014ad6200300c565b602002602001015186602001518581518110620014ce57620014ce6200300c565b602002602001015187604001518681518110620014ef57620014ef6200300c565b6020026020010151886060015187815181106200151057620015106200300c565b60200260200101518961012001516040518763ffffffff1660e01b81526004016200154095949392919062003022565b60006040518083038185885af11580156200155f573d6000803e3d6000fd5b50505050506040513d6000823e601f3d908101601f191682016040526200158a91908101906200307a565b506001016200143b565b5060405167ffffffffffffffff851681527f2b3962140cfad697e04b60d47af771de8568e6ead5f42b8873c4a8d12bd2b3c79060200162000b74565b7f00000000000000000000000000000000000000000000000000000000000000006001600160a01b0316630e18b6816040518163ffffffff1660e01b8152600401600060405180830381600087803b1580156200162c57600080fd5b505af115801562001641573d6000803e3d6000fd5b50505050565b60008060ff60f81b3085856040516020016200169592919060c092831b7fffffffffffffffff000000000000000000000000000000000000000000000000168152911b600882015260100190565b6040516020818303038152906040528051906020012060405180602001620016bd906200213a565b601f1982820381018352601f909101166040819052620016e19190602001620030b3565b604051602081830303815290604052805190602001206040516020016200175794939291907fff0000000000000000000000000000000000000000000000000000000000000094909416845260609290921b6bffffffffffffffffffffffff191660018401526015830152603582015260550190565b60408051808303601f190181529190528051602090910120949350505050565b336001600160a01b037f00000000000000000000000000000000000000000000000000000000000000001614620017c157604051634a7f394f60e01b815260040160405180910390fd5b7f00000000000000000000000000000000000000000000000000000000000000006bffffffffffffffffffffffff16816bffffffffffffffffffffffff1610156200181f57604051634a7f394f60e01b815260040160405180910390fd5b7f00000000000000000000000000000000000000000000000000000000000000006bffffffffffffffffffffffff16816bffffffffffffffffffffffff1611156200187d57604051634a7f394f60e01b815260040160405180910390fd5b600080547fffffffffffffffffffff000000000000000000000000ffffffffffffffffffff166a01000000000000000000006bffffffffffffffffffffffff8416908102919091179091556040519081527fff6500f609261dffe81c46cd3a92bfacb4ba18bb4a8fb2244547986c5ba7457f90602001620008ff565b336001600160a01b037f000000000000000000000000000000000000000000000000000000000000000016146200194357604051634a7f394f60e01b815260040160405180910390fd5b620151808164ffffffffff1610156200196f57604051634a7f394f60e01b815260040160405180910390fd5b62093a808164ffffffffff1611156200199b57604051634a7f394f60e01b815260040160405180910390fd5b6000805464ffffffffff191664ffffffffff83169081179091556040519081527f4b9e05d03a781f25fd55d65f8a28c7452e1ecb4a70c2b761bbfe0d9fb8a9d3cb90602001620008ff565b600081610160015115620019fc57506002919050565b8160e0015164ffffffffff16421162001a1757506000919050565b81610100015164ffffffffff16421162001a3357506001919050565b8160c001516bffffffffffffffffffffffff168260a001516bffffffffffffffffffffffff161162001a6757506003919050565b81610120015164ffffffffff1660000362001a8457506004919050565b8161014001511562001a9857506007919050565b7f00000000000000000000000000000000000000000000000000000000000000006001600160a01b031663c1a287e26040518163ffffffff1660e01b8152600401602060405180830381865afa15801562001af7573d6000803e3d6000fd5b505050506040513d601f19601f8201168201806040525081019062001b1d919062002c81565b82610120015164ffffffffff1662001b36919062002ff1565b421062001b4557506006919050565b506005919050565b919050565b3362001b7f7f00000000000000000000000000000000000000000000000000000000000000008362001fd6565b6001600160a01b03161462001bc0576040517f49e27cff00000000000000000000000000000000000000000000000000000000815260040160405180910390fd5b50565b6000808360070b1362001c02576040517f0f3e2a3e00000000000000000000000000000000000000000000000000000000815260040160405180910390fd5b6040517f99fbab8800000000000000000000000000000000000000000000000000000000815267ffffffffffffffff841660048201526000907f00000000000000000000000000000000000000000000000000000000000000006001600160a01b0316906399fbab889060240160e060405180830381865afa15801562001c8d573d6000803e3d6000fd5b505050506040513d601f19601f8201168201806040525081019062001cb39190620030e8565b90508264ffffffffff16816060015165ffffffffffff16101562001cdb575151905062000989565b600091505062000989565b600062001d92838360405160200162001d3192919060c092831b7fffffffffffffffff000000000000000000000000000000000000000000000000168152911b600882015260100190565b604051602081830303815290604052805190602001206040518060200162001d59906200213a565b601f1982820381018352601f90910116604081905262001d7d9190602001620030b3565b60405160208183030381529060405262002119565b9392505050565b6040517fffffffffffffffff00000000000000000000000000000000000000000000000060c083901b1660208201526000906200098990602801604051602081830303815290604052805190602001206040518060200162001dfb906200212c565b601f1982820381018352601f9091011660408181523060208301520160408051601f198184030181529082905262001d7d929160200162002c15565b7f00000000000000000000000000000000000000000000000000000000000000006001600160a01b031663f2b06537868686868660405160200162001e8195949392919062003022565b604051602081830303815290604052805190602001206040518263ffffffff1660e01b815260040162001eb691815260200190565b602060405180830381865afa15801562001ed4573d6000803e3d6000fd5b505050506040513d601f19601f8201168201806040525081019062001efa9190620031da565b1562001f195760405163baf3f0f760e01b815260040160405180910390fd5b6040517f3a66f9010000000000000000000000000000000000000000000000000000000081526001600160a01b037f00000000000000000000000000000000000000000000000000000000000000001690633a66f9019062001f88908890889088908890889060040162003022565b6020604051808303816000875af115801562001fa8573d6000803e3d6000fd5b505050506040513d601f19601f8201168201806040525081019062001fce919062002c81565b505050505050565b604080516001600160a01b0384166024820152600783900b60448083019190915282518083039091018152606490910182526020810180517bffffffffffffffffffffffffffffffffffffffffffffffffffffffff167f287e1da80000000000000000000000000000000000000000000000000000000017905290516000918291610167916200206691620030b3565b6000604051808303816000865af19150503d8060008114620020a5576040519150601f19603f3d011682016040523d82523d6000602084013e620020aa565b606091505b5091505060008082806020019051810190620020c791906200392d565b91509150601660030b8260030b146200210c576040517f64c3c24900000000000000000000000000000000000000000000000000000000815260040160405180910390fd5b6040015195945050505050565b6000828251602084016000f59392505050565b6115a08062003a3383390190565b605c8062004fd383390190565b67ffffffffffffffff8116811462001bc057600080fd5b801515811462001bc057600080fd5b8060070b811462001bc057600080fd5b803562001b4d816200216d565b600080600060608486031215620021a057600080fd5b8335620021ad8162002147565b92506020840135620021bf816200215e565b91506040840135620021d1816200216d565b809150509250925092565b64ffffffffff8116811462001bc057600080fd5b6000602082840312156200220357600080fd5b813562001d9281620021dc565b6000602082840312156200222357600080fd5b813562001d928162002147565b634e487b7160e01b600052602160045260246000fd5b60208101600883106200226957634e487b7160e01b600052602160045260246000fd5b91905290565b634e487b7160e01b600052604160045260246000fd5b604051610180810167ffffffffffffffff81118282101715620022ac57620022ac6200226f565b60405290565b6040805190810167ffffffffffffffff81118282101715620022ac57620022ac6200226f565b60405160a0810167ffffffffffffffff81118282101715620022ac57620022ac6200226f565b604051610120810167ffffffffffffffff81118282101715620022ac57620022ac6200226f565b60405160c0810167ffffffffffffffff81118282101715620022ac57620022ac6200226f565b604051601f8201601f1916810167ffffffffffffffff811182821017156200237757620023776200226f565b604052919050565b600067ffffffffffffffff8211156200239c576200239c6200226f565b5060051b60200190565b6001600160a01b038116811462001bc057600080fd5b600082601f830112620023ce57600080fd5b81356020620023e7620023e1836200237f565b6200234b565b82815260059290921b840181019181810190868411156200240757600080fd5b8286015b848110156200242f5780356200242181620023a6565b83529183019183016200240b565b509695505050505050565b600082601f8301126200244c57600080fd5b813560206200245f620023e1836200237f565b82815260059290921b840181019181810190868411156200247f57600080fd5b8286015b848110156200242f578035835291830191830162002483565b600067ffffffffffffffff821115620024b957620024b96200226f565b50601f01601f191660200190565b6000620024d8620023e1846200249c565b9050828152838383011115620024ed57600080fd5b828260208301376000602084830101529392505050565b600082601f8301126200251657600080fd5b62001d9283833560208501620024c7565b600082601f8301126200253957600080fd5b813560206200254c620023e1836200237f565b82815260059290921b840181019181810190868411156200256c57600080fd5b8286015b848110156200242f57803567ffffffffffffffff811115620025925760008081fd5b620025a28986838b010162002504565b84525091830191830162002570565b600082601f830112620025c357600080fd5b81356020620025d6620023e1836200237f565b82815260059290921b84018101918181019086841115620025f657600080fd5b8286015b848110156200242f57803567ffffffffffffffff8111156200261c5760008081fd5b8701603f810189136200262f5760008081fd5b62002642898683013560408401620024c7565b845250918301918301620025fa565b60008060008060008060c087890312156200266b57600080fd5b863567ffffffffffffffff808211156200268457600080fd5b620026928a838b01620023bc565b97506020890135915080821115620026a957600080fd5b620026b78a838b016200243a565b96506040890135915080821115620026ce57600080fd5b620026dc8a838b0162002527565b95506060890135915080821115620026f357600080fd5b620027018a838b01620025b1565b945060808901359150808211156200271857600080fd5b506200272789828a0162002504565b9250506200273860a088016200217d565b90509295509295509295565b600080604083850312156200275857600080fd5b8235620027658162002147565b9150602083013562002777816200216d565b809150509250929050565b6bffffffffffffffffffffffff8116811462001bc057600080fd5b600060208284031215620027b057600080fd5b813562001d928162002782565b600060208284031215620027d057600080fd5b813562001d92816200216d565b805162001b4d81620023a6565b600082601f830112620027fc57600080fd5b815160206200280f620023e1836200237f565b82815260059290921b840181019181810190868411156200282f57600080fd5b8286015b848110156200242f5780516200284981620023a6565b835291830191830162002833565b600082601f8301126200286957600080fd5b815160206200287c620023e1836200237f565b82815260059290921b840181019181810190868411156200289c57600080fd5b8286015b848110156200242f5780518352918301918301620028a0565b60005b83811015620028d6578181015183820152602001620028bc565b83811115620016415750506000910152565b600082601f830112620028fa57600080fd5b81516200290b620023e1826200249c565b8181528460208386010111156200292157600080fd5b62002934826020830160208701620028b9565b949350505050565b600082601f8301126200294e57600080fd5b8151602062002961620023e1836200237f565b82815260059290921b840181019181810190868411156200298157600080fd5b8286015b848110156200242f57805167ffffffffffffffff811115620029a75760008081fd5b620029b78986838b0101620028e8565b84525091830191830162002985565b600082601f830112620029d857600080fd5b81516020620029eb620023e1836200237f565b82815260059290921b8401810191818101908684111562002a0b57600080fd5b8286015b848110156200242f57805167ffffffffffffffff81111562002a315760008081fd5b62002a418986838b0101620028e8565b84525091830191830162002a0f565b805162001b4d816200216d565b805162001b4d8162002782565b805162001b4d81620021dc565b805162001b4d816200215e565b60006020828403121562002a9757600080fd5b815167ffffffffffffffff8082111562002ab057600080fd5b90830190610180828603121562002ac657600080fd5b62002ad062002285565b82518281111562002ae057600080fd5b62002aee87828601620027ea565b82525060208301518281111562002b0457600080fd5b62002b128782860162002857565b60208301525060408301518281111562002b2b57600080fd5b62002b39878286016200293c565b60408301525060608301518281111562002b5257600080fd5b62002b6087828601620029c6565b60608301525062002b746080840162002a50565b608082015262002b8760a0840162002a5d565b60a082015262002b9a60c0840162002a5d565b60c082015262002bad60e0840162002a6a565b60e0820152610100915062002bc482840162002a6a565b82820152610120915062002bda82840162002a6a565b82820152610140915062002bf082840162002a77565b82820152610160915062002c0682840162002a77565b91810191909152949350505050565b6000835162002c29818460208801620028b9565b83519083019062002c3f818360208801620028b9565b01949350505050565b634e487b7160e01b600052601160045260246000fd5b600064ffffffffff80831681851680830382111562002c3f5762002c3f62002c48565b60006020828403121562002c9457600080fd5b5051919050565b600064ffffffffff8381169083168181101562002cbc5762002cbc62002c48565b039392505050565b60007fffffffffffffffffffffffffffffffffffffffffffffffffffffffffffffffff820362002cf85762002cf862002c48565b5060010190565b600081518084526020808501945080840160005b8381101562002d3a5781516001600160a01b03168752958201959082019060010162002d13565b509495945050505050565b600081518084526020808501945080840160005b8381101562002d3a5781518752958201959082019060010162002d59565b6000815180845262002d91816020860160208601620028b9565b601f01601f19169290920160200192915050565b600081518084526020808501808196508360051b8101915082860160005b8581101562002df157828403895262002dde84835162002d77565b9885019893509084019060010162002dc3565b5091979650505050505050565b602081526000825161018080602085015262002e1f6101a085018362002cff565b91506020850151601f198086850301604087015262002e3f848362002d45565b9350604087015191508086850301606087015262002e5e848362002da5565b935060608701519150808685030160808701525062002e7e838262002da5565b925050608085015162002e9660a086018260070b9052565b5060a08501516bffffffffffffffffffffffff811660c08601525060c08501516bffffffffffffffffffffffff811660e08601525060e085015161010062002ee68187018364ffffffffff169052565b860151905061012062002f018682018364ffffffffff169052565b860151905061014062002f1c8682018364ffffffffff169052565b860151905061016062002f328682018315159052565b90950151151593019290925250919050565b600061012067ffffffffffffffff8c1683528a60070b602084015280604084015262002f738184018b62002cff565b9050828103606084015262002f89818a62002d45565b9050828103608084015262002f9f818962002da5565b905082810360a084015262002fb5818862002da5565b64ffffffffff87811660c0860152861660e0850152838103610100850152905062002fe1818562002d77565b9c9b505050505050505050505050565b6000821982111562003007576200300762002c48565b500190565b634e487b7160e01b600052603260045260246000fd5b6001600160a01b038616815284602082015260a0604082015260006200304c60a083018662002d77565b828103606084015262003060818662002d77565b91505064ffffffffff831660808301529695505050505050565b6000602082840312156200308d57600080fd5b815167ffffffffffffffff811115620030a557600080fd5b6200293484828501620028e8565b60008251620030c7818460208701620028b9565b9190910192915050565b805165ffffffffffff8116811462001b4d57600080fd5b600081830360e0811215620030fc57600080fd5b62003106620022d8565b60408212156200311557600080fd5b6200311f620022b2565b84516200312c8162002782565b815260208501516200313e81620023a6565b6020820152815260407fffffffffffffffffffffffffffffffffffffffffffffffffffffffffffffffc0830112156200317657600080fd5b62003180620022b2565b91506040840151825260608401516020830152816020820152620031a760808501620027dd565b6040820152620031ba60a08501620030d1565b6060820152620031cd60c08501620030d1565b6080820152949350505050565b600060208284031215620031ed57600080fd5b815162001d92816200215e565b600082601f8301126200320c57600080fd5b815160206200321f620023e1836200237f565b82815260059290921b840181019181810190868411156200323f57600080fd5b8286015b848110156200242f57805167ffffffffffffffff808211156200326557600080fd5b81890191506040601f198181858e030112156200328157600080fd5b6200328b620022b2565b8885015181528285015184811115620032a357600080fd5b949094019360a0858e0383011215620032bc5760008081fd5b620032c6620022d8565b915088850151620032d7816200215e565b825284830151620032e881620023a6565b828a015260608581015185811115620033015760008081fd5b620033118f8c838a0101620028e8565b85850152506080935083860151858111156200332d5760008081fd5b6200333d8f8c838a0101620028e8565b8285015250506200335160a08601620027dd565b92820192909252818801528552505091830191830162003243565b805163ffffffff8116811462001b4d57600080fd5b6000606082840312156200339457600080fd5b6040516060810181811067ffffffffffffffff82111715620033ba57620033ba6200226f565b604052905080620033cb836200336c565b81526020830151620033dd81620023a6565b6020820152620033f0604084016200336c565b60408201525092915050565b600061016082840312156200341057600080fd5b6200341a620022fe565b9050815167ffffffffffffffff808211156200343557600080fd5b6200344385838601620028e8565b835260208401519150808211156200345a57600080fd5b6200346885838601620028e8565b60208401526200347b60408501620027dd565b604084015260608401519150808211156200349557600080fd5b620034a385838601620028e8565b6060840152620034b66080850162002a77565b6080840152620034c960a0850162002a50565b60a0840152620034dc60c0850162002a77565b60c084015260e0840151915080821115620034f657600080fd5b506200350584828501620031fa565b60e0830152506101006200351c8482850162003381565b9082015292915050565b805162001b4d8162002147565b600082601f8301126200354557600080fd5b8151602062003558620023e1836200237f565b82815260a092830285018201928282019190878511156200357857600080fd5b8387015b858110156200360d5781818a031215620035965760008081fd5b620035a0620022d8565b620035ab826200336c565b815285820151620035bc81620023a6565b81870152604082810151620035d1816200215e565b90820152606082810151620035e6816200215e565b90820152608082810151620035fb81620023a6565b9082015284529284019281016200357c565b5090979650505050505050565b600082601f8301126200362c57600080fd5b815160206200363f620023e1836200237f565b82815260c092830285018201928282019190878511156200365f57600080fd5b8387015b858110156200360d5781818a0312156200367d5760008081fd5b6200368762002325565b62003692826200336c565b8152620036a18683016200336c565b868201526040620036b48184016200336c565b908201526060620036c78382016200336c565b90820152608082810151620036dc816200215e565b9082015260a082810151620036f181620023a6565b90820152845292840192810162003663565b600082601f8301126200371557600080fd5b8151602062003728620023e1836200237f565b82815260c092830285018201928282019190878511156200374857600080fd5b8387015b858110156200360d5781818a031215620037665760008081fd5b6200377062002325565b6200377b826200336c565b81526200378a8683016200336c565b8682015260406200379d8184016200336c565b90820152606082810151620037b281620023a6565b90820152608082810151620037c7816200215e565b9082015260a082810151620037dc81620023a6565b9082015284529284019281016200374c565b600061012082840312156200380257600080fd5b6200380c620022fe565b9050815167ffffffffffffffff808211156200382757600080fd5b6200383585838601620033fc565b8352620038456020850162003526565b6020840152620038586040850162002a77565b60408401526200386b6060850162002a77565b60608401526200387e6080850162002a77565b608084015260a08401519150808211156200389857600080fd5b620038a68583860162003533565b60a084015260c0840151915080821115620038c057600080fd5b620038ce858386016200361a565b60c084015260e0840151915080821115620038e857600080fd5b620038f68583860162003703565b60e0840152610100915081840151818111156200391257600080fd5b6200392086828701620028e8565b8385015250505092915050565b600080604083850312156200394157600080fd5b82518060030b81146200395357600080fd5b602084015190925067ffffffffffffffff808211156200397257600080fd5b9084019060c082870312156200398757600080fd5b6200399162002325565b825182811115620039a157600080fd5b620039af88828601620037ee565b825250620039c06020840162002a50565b6020820152620039d360408401620027dd565b6040820152620039e66060840162002a50565b6060820152608083015182811115620039fe57600080fd5b62003a0c88828601620028e8565b60808301525062003a2060a08401620027dd565b60a0820152809350505050925092905056fe60a060405234801561001057600080fd5b506040516115a03803806115a083398101604081905261002f91610040565b6001600160a01b0316608052610070565b60006020828403121561005257600080fd5b81516001600160a01b038116811461006957600080fd5b9392505050565b6080516114f36100ad6000396000818160920152818161018a015281816102190152818161047d0152818161089d015261092301526114f36000f3fe6080604052600436106100745760003560e01c8063a78cac151161004e578063a78cac1514610113578063b9e2bea014610128578063be7087871461014a578063d26424951461015f57600080fd5b80632a0acc6a146100805780632c55132a146100d157806363ec07c0146100f357600080fd5b3661007b57005b600080fd5b34801561008c57600080fd5b506100b47f000000000000000000000000000000000000000000000000000000000000000081565b6040516001600160a01b0390911681526020015b60405180910390f35b3480156100dd57600080fd5b506100f16100ec366004610c05565b61017f565b005b3480156100ff57600080fd5b506100f161010e366004610f58565b61020e565b34801561011f57600080fd5b506100f1610472565b34801561013457600080fd5b5061013d6104f7565b6040516100c891906111ca565b34801561015657600080fd5b506100f1610892565b34801561016b57600080fd5b506100f161017a366004611303565b610918565b336001600160a01b037f000000000000000000000000000000000000000000000000000000000000000016146101c857604051634ca8886760e01b815260040160405180910390fd5b6005805464ffffffffff9092166a0100000000000000000000027fffffffffffffffffffffffffffffffffff0000000000ffffffffffffffffffff909216919091179055565b336001600160a01b037f0000000000000000000000000000000000000000000000000000000000000000161461025757604051634ca8886760e01b815260040160405180910390fd5b805180518291600091610271918391602090910190610a03565b50602082810151805161028a9260018501920190610a80565b50604082015180516102a6916002840191602090910190610abb565b50606082015180516102c2916003840191602090910190610b0d565b50608082015160048201805460a085015160c08601516bffffffffffffffffffffffff90811674010000000000000000000000000000000000000000026001600160a01b039190921668010000000000000000027fffffffffffffffffffffffff000000000000000000000000000000000000000090931667ffffffffffffffff90951694909417919091179290921691909117905560e082015160059091018054610100840151610120850151610140860151610160909601511515700100000000000000000000000000000000027fffffffffffffffffffffffffffffff00ffffffffffffffffffffffffffffffff9615156f01000000000000000000000000000000027fffffffffffffffffffffffffffffffff00ffffffffffffffffffffffffffffff64ffffffffff9384166a010000000000000000000002167fffffffffffffffffffffffffffffffff000000000000ffffffffffffffffffff94841665010000000000027fffffffffffffffffffffffffffffffffffffffffffff000000000000000000009096169390971692909217939093179190911693909317929092179290921617905550565b336001600160a01b037f000000000000000000000000000000000000000000000000000000000000000016146104bb57604051634ca8886760e01b815260040160405180910390fd5b600580547fffffffffffffffffffffffffffffffff00ffffffffffffffffffffffffffffff166f01000000000000000000000000000000179055565b60408051610180810182526060808252602082018190529181018290528181019190915260006080820181905260a0820181905260c0820181905260e0820181905261010082018190526101208201819052610140820181905261016082015260408051600080546101a060208202840181019094526101808301818152929391928492909184918401828280156105b857602002820191906000526020600020905b81546001600160a01b0316815260019091019060200180831161059a575b505050505081526020016001820180548060200260200160405190810160405280929190818152602001828054801561061057602002820191906000526020600020905b8154815260200190600101908083116105fc575b5050505050815260200160028201805480602002602001604051908101604052809291908181526020016000905b828210156106ea57838290600052602060002001805461065d90611336565b80601f016020809104026020016040519081016040528092919081815260200182805461068990611336565b80156106d65780601f106106ab576101008083540402835291602001916106d6565b820191906000526020600020905b8154815290600101906020018083116106b957829003601f168201915b50505050508152602001906001019061063e565b50505050815260200160038201805480602002602001604051908101604052809291908181526020016000905b828210156107c357838290600052602060002001805461073690611336565b80601f016020809104026020016040519081016040528092919081815260200182805461076290611336565b80156107af5780601f10610784576101008083540402835291602001916107af565b820191906000526020600020905b81548152906001019060200180831161079257829003601f168201915b505050505081526020019060010190610717565b505050908252506004820154600781900b60208301526bffffffffffffffffffffffff680100000000000000008204811660408401527401000000000000000000000000000000000000000090910416606082015260059091015464ffffffffff8082166080840152650100000000008204811660a08401526a010000000000000000000082041660c083015260ff6f0100000000000000000000000000000082048116151560e084015270010000000000000000000000000000000090910416151561010090910152919050565b336001600160a01b037f000000000000000000000000000000000000000000000000000000000000000016146108db57604051634ca8886760e01b815260040160405180910390fd5b600580547fffffffffffffffffffffffffffffff00ffffffffffffffffffffffffffffffff16700100000000000000000000000000000000179055565b336001600160a01b037f0000000000000000000000000000000000000000000000000000000000000000161461096157604051634ca8886760e01b815260040160405180910390fd5b80156109c857600480548391906008906109969084906801000000000000000090046bffffffffffffffffffffffff16611370565b92506101000a8154816bffffffffffffffffffffffff02191690836bffffffffffffffffffffffff1602179055505050565b600480548391906014906109969084907401000000000000000000000000000000000000000090046bffffffffffffffffffffffff16611370565b828054828255906000526020600020908101928215610a70579160200282015b82811115610a7057825182547fffffffffffffffffffffffff0000000000000000000000000000000000000000166001600160a01b03909116178255602090920191600190910190610a23565b50610a7c929150610b5f565b5090565b828054828255906000526020600020908101928215610a70579160200282015b82811115610a70578251825591602001919060010190610aa0565b828054828255906000526020600020908101928215610b01579160200282015b82811115610b015782518290610af190826113fd565b5091602001919060010190610adb565b50610a7c929150610b74565b828054828255906000526020600020908101928215610b53579160200282015b82811115610b535782518290610b4390826113fd565b5091602001919060010190610b2d565b50610a7c929150610b91565b5b80821115610a7c5760008155600101610b60565b80821115610a7c576000610b888282610bae565b50600101610b74565b80821115610a7c576000610ba58282610bae565b50600101610b91565b508054610bba90611336565b6000825580601f10610bca575050565b601f016020900490600052602060002090810190610be89190610b5f565b50565b803564ffffffffff81168114610c0057600080fd5b919050565b600060208284031215610c1757600080fd5b610c2082610beb565b9392505050565b634e487b7160e01b600052604160045260246000fd5b604051610180810167ffffffffffffffff81118282101715610c6157610c61610c27565b60405290565b604051601f8201601f1916810167ffffffffffffffff81118282101715610c9057610c90610c27565b604052919050565b600067ffffffffffffffff821115610cb257610cb2610c27565b5060051b60200190565b600082601f830112610ccd57600080fd5b81356020610ce2610cdd83610c98565b610c67565b82815260059290921b84018101918181019086841115610d0157600080fd5b8286015b84811015610d325780356001600160a01b0381168114610d255760008081fd5b8352918301918301610d05565b509695505050505050565b600082601f830112610d4e57600080fd5b81356020610d5e610cdd83610c98565b82815260059290921b84018101918181019086841115610d7d57600080fd5b8286015b84811015610d325780358352918301918301610d81565b600067ffffffffffffffff831115610db257610db2610c27565b610dc56020601f19601f86011601610c67565b9050828152838383011115610dd957600080fd5b828260208301376000602084830101529392505050565b600082601f830112610e0157600080fd5b81356020610e11610cdd83610c98565b82815260059290921b84018101918181019086841115610e3057600080fd5b8286015b84811015610d3257803567ffffffffffffffff811115610e545760008081fd5b8701603f81018913610e665760008081fd5b610e77898683013560408401610d98565b845250918301918301610e34565b600082601f830112610e9657600080fd5b81356020610ea6610cdd83610c98565b82815260059290921b84018101918181019086841115610ec557600080fd5b8286015b84811015610d3257803567ffffffffffffffff811115610ee95760008081fd5b8701603f81018913610efb5760008081fd5b610f0c898683013560408401610d98565b845250918301918301610ec9565b8035600781900b8114610c0057600080fd5b80356bffffffffffffffffffffffff81168114610c0057600080fd5b80358015158114610c0057600080fd5b600060208284031215610f6a57600080fd5b813567ffffffffffffffff80821115610f8257600080fd5b908301906101808286031215610f9757600080fd5b610f9f610c3d565b823582811115610fae57600080fd5b610fba87828601610cbc565b825250602083013582811115610fcf57600080fd5b610fdb87828601610d3d565b602083015250604083013582811115610ff357600080fd5b610fff87828601610df0565b60408301525060608301358281111561101757600080fd5b61102387828601610e85565b60608301525061103560808401610f1a565b608082015261104660a08401610f2c565b60a082015261105760c08401610f2c565b60c082015261106860e08401610beb565b60e0820152610100915061107d828401610beb565b828201526101209150611091828401610beb565b8282015261014091506110a5828401610f48565b8282015261016091506110b9828401610f48565b91810191909152949350505050565b600081518084526020808501945080840160005b838110156111015781516001600160a01b0316875295820195908201906001016110dc565b509495945050505050565b600081518084526020808501945080840160005b8381101561110157815187529582019590820190600101611120565b600081518084526020808501808196508360051b810191508286016000805b868110156111bc578385038a5282518051808752835b8181101561118c578281018901518882018a01528801611171565b8181111561119c578489838a0101525b509a87019a601f01601f191695909501860194509185019160010161115b565b509298975050505050505050565b60208152600082516101808060208501526111e96101a08501836110c8565b91506020850151601f1980868503016040870152611207848361110c565b93506040870151915080868503016060870152611224848361113c565b9350606087015191508086850301608087015250611242838261113c565b925050608085015161125960a086018260070b9052565b5060a08501516bffffffffffffffffffffffff811660c08601525060c08501516bffffffffffffffffffffffff811660e08601525060e08501516101006112a88187018364ffffffffff169052565b86015190506101206112c28682018364ffffffffff169052565b86015190506101406112dc8682018364ffffffffff169052565b86015190506101606112f18682018315159052565b90950151151593019290925250919050565b6000806040838503121561131657600080fd5b61131f83610f2c565b915061132d60208401610f48565b90509250929050565b600181811c9082168061134a57607f821691505b60208210810361136a57634e487b7160e01b600052602260045260246000fd5b50919050565b60006bffffffffffffffffffffffff8083168185168083038211156113a557634e487b7160e01b600052601160045260246000fd5b01949350505050565b601f8211156113f857600081815260208120601f850160051c810160208610156113d55750805b601f850160051c820191505b818110156113f4578281556001016113e1565b5050505b505050565b815167ffffffffffffffff81111561141757611417610c27565b61142b816114258454611336565b846113ae565b602080601f83116001811461146057600084156114485750858301515b600019600386901b1c1916600185901b1785556113f4565b600085815260208120601f198616915b8281101561148f57888601518255948401946001909101908401611470565b50858210156114ad5787850151600019600388901b60f8161c191681555b5050505050600190811b0190555056fea2646970667358221220cfd7f26c63262fc94bc87c9e92d3d78a7089760b2b1937645a39440ef1acf8f364736f6c634300080f00336080604052348015600f57600080fd5b50603f80601d6000396000f3fe6080604052600080fdfea264697066735822122034b4245771019f2600988bb370c12f37188f0c041b15fd731154a68df265646864736f6c634300080f0033a26469706673582212206748c597315e218942c87fac735477174723fc5d74f279046b6b4fd41b7ff06a64736f6c634300080f0033",
  "linkReferences": {},
  "deployedLinkReferences": {}
}