{
  "_format": "hh-sol-artifact-1",
  "contractName": "Governor",
  "sourceName": "contracts/governor/Governor.sol",
  "abi": [
    {
      "inputs": [
        {
          "internalType": "address",
          "name": "_assistant",
          "type": "address"
        },
        {
          "internalType": "address",
          "name": "_timelock",
          "type": "address"
        },
        {
          "internalType": "address",
          "name": "_nft",
          "type": "address"
        },
        {
          "internalType": "address",
          "name": "_nftContract",
          "type": "address"
        }
      ],
      "stateMutability": "nonpayable",
      "type": "constructor"
    },
    {
      "inputs": [],
      "name": "IllegalVote",
      "type": "error"
    },
    {
      "inputs": [],
      "name": "InsufficientVotes",
      "type": "error"
    },
    {
      "inputs": [],
      "name": "InvalidAction",
      "type": "error"
    },
    {
      "inputs": [],
      "name": "InvalidNFT",
      "type": "error"
    },
    {
      "inputs": [],
      "name": "InvalidOwner",
      "type": "error"
    },
    {
      "inputs": [],
      "name": "InvalidState",
      "type": "error"
    },
    {
      "inputs": [],
      "name": "NonSuccess",
      "type": "error"
    },
    {
      "anonymous": false,
      "inputs": [
        {
          "indexed": false,
          "internalType": "uint64",
          "name": "id",
          "type": "uint64"
        }
      ],
      "name": "ProposalCanceled",
      "type": "event"
    },
    {
      "anonymous": false,
      "inputs": [
        {
          "indexed": false,
          "internalType": "uint64",
          "name": "id",
          "type": "uint64"
        },
        {
          "indexed": false,
          "internalType": "address[]",
          "name": "targets",
          "type": "address[]"
        },
        {
          "indexed": false,
          "internalType": "uint256[]",
          "name": "values",
          "type": "uint256[]"
        },
        {
          "indexed": false,
          "internalType": "string[]",
          "name": "signatures",
          "type": "string[]"
        },
        {
          "indexed": false,
          "internalType": "bytes[]",
          "name": "calldatas",
          "type": "bytes[]"
        },
        {
          "indexed": false,
          "internalType": "uint40",
          "name": "startTime",
          "type": "uint40"
        },
        {
          "indexed": false,
          "internalType": "uint40",
          "name": "endTime",
          "type": "uint40"
        },
        {
          "indexed": false,
          "internalType": "string",
          "name": "description",
          "type": "string"
        }
      ],
      "name": "ProposalCreated",
      "type": "event"
    },
    {
      "anonymous": false,
      "inputs": [
        {
          "indexed": false,
          "internalType": "uint64",
          "name": "id",
          "type": "uint64"
        }
      ],
      "name": "ProposalExecuted",
      "type": "event"
    },
    {
      "anonymous": false,
      "inputs": [
        {
          "indexed": false,
          "internalType": "uint64",
          "name": "id",
          "type": "uint64"
        },
        {
          "indexed": false,
          "internalType": "uint40",
          "name": "eta",
          "type": "uint40"
        }
      ],
      "name": "ProposalQueued",
      "type": "event"
    },
    {
      "anonymous": false,
      "inputs": [
        {
          "indexed": false,
          "internalType": "uint64",
          "name": "proposalId",
          "type": "uint64"
        },
        {
          "indexed": false,
          "internalType": "bool",
          "name": "support",
          "type": "bool"
        },
        {
          "indexed": false,
          "internalType": "uint96",
          "name": "votes",
          "type": "uint96"
        }
      ],
      "name": "VoteCast",
      "type": "event"
    },
    {
      "anonymous": false,
      "inputs": [
        {
          "indexed": false,
          "internalType": "uint40",
          "name": "newVotingDelay",
          "type": "uint40"
        }
      ],
      "name": "VotingDelayChanged",
      "type": "event"
    },
    {
      "anonymous": false,
      "inputs": [
        {
          "indexed": false,
          "internalType": "uint40",
          "name": "newVotingPeriod",
          "type": "uint40"
        }
      ],
      "name": "VotingPeriodChanged",
      "type": "event"
    },
    {
      "inputs": [],
      "name": "ASSISTANT",
      "outputs": [
        {
          "internalType": "contract IGovernorAssistant",
          "name": "",
          "type": "address"
        }
      ],
      "stateMutability": "view",
      "type": "function"
    },
    {
      "inputs": [],
      "name": "NFT_CONTRACT",
      "outputs": [
        {
          "internalType": "address",
          "name": "",
          "type": "address"
        }
      ],
      "stateMutability": "view",
      "type": "function"
    },
    {
      "inputs": [],
      "name": "NFT_TOKEN",
      "outputs": [
        {
          "internalType": "address",
          "name": "",
          "type": "address"
        }
      ],
      "stateMutability": "view",
      "type": "function"
    },
    {
      "inputs": [],
      "name": "PROPOSAL_THRESHOLD",
      "outputs": [
        {
          "internalType": "uint96",
          "name": "",
          "type": "uint96"
        }
      ],
      "stateMutability": "view",
      "type": "function"
    },
    {
      "inputs": [],
      "name": "TIMELOCK",
      "outputs": [
        {
          "internalType": "contract ITimelock",
          "name": "",
          "type": "address"
        }
      ],
      "stateMutability": "view",
      "type": "function"
    },
    {
      "inputs": [],
      "name": "VOTING_DELAY",
      "outputs": [
        {
          "internalType": "uint40",
          "name": "",
          "type": "uint40"
        }
      ],
      "stateMutability": "view",
      "type": "function"
    },
    {
      "inputs": [],
      "name": "VOTING_PERIOD",
      "outputs": [
        {
          "internalType": "uint40",
          "name": "",
          "type": "uint40"
        }
      ],
      "stateMutability": "view",
      "type": "function"
    },
    {
      "inputs": [],
      "name": "__acceptAdmin",
      "outputs": [],
      "stateMutability": "nonpayable",
      "type": "function"
    },
    {
      "inputs": [
        {
          "internalType": "uint40",
          "name": "newVotingDelay",
          "type": "uint40"
        }
      ],
      "name": "__setVotingDelay",
      "outputs": [],
      "stateMutability": "nonpayable",
      "type": "function"
    },
    {
      "inputs": [
        {
          "internalType": "uint40",
          "name": "newVotingPeriod",
          "type": "uint40"
        }
      ],
      "name": "__setVotingPeriod",
      "outputs": [],
      "stateMutability": "nonpayable",
      "type": "function"
    },
    {
      "inputs": [
        {
          "internalType": "uint64",
          "name": "proposalId",
          "type": "uint64"
        }
      ],
      "name": "cancel",
      "outputs": [],
      "stateMutability": "nonpayable",
      "type": "function"
    },
    {
      "inputs": [
        {
          "internalType": "uint64",
          "name": "proposalId",
          "type": "uint64"
        },
        {
          "internalType": "bool",
          "name": "support",
          "type": "bool"
        },
        {
          "internalType": "int64",
          "name": "nftId",
          "type": "int64"
        }
      ],
      "name": "castVote",
      "outputs": [],
      "stateMutability": "nonpayable",
      "type": "function"
    },
    {
      "inputs": [
        {
          "internalType": "uint64",
          "name": "proposalId",
          "type": "uint64"
        }
      ],
      "name": "execute",
      "outputs": [],
      "stateMutability": "payable",
      "type": "function"
    },
    {
      "inputs": [],
      "name": "proposalCount",
      "outputs": [
        {
          "internalType": "uint256",
          "name": "",
          "type": "uint256"
        }
      ],
      "stateMutability": "view",
      "type": "function"
    },
    {
      "inputs": [
        {
          "internalType": "int64",
          "name": "",
          "type": "int64"
        }
      ],
      "name": "proposalTimeout",
      "outputs": [
        {
          "internalType": "uint40",
          "name": "",
          "type": "uint40"
        }
      ],
      "stateMutability": "view",
      "type": "function"
    },
    {
      "inputs": [
        {
          "internalType": "address[]",
          "name": "targets",
          "type": "address[]"
        },
        {
          "internalType": "uint256[]",
          "name": "values",
          "type": "uint256[]"
        },
        {
          "internalType": "string[]",
          "name": "signatures",
          "type": "string[]"
        },
        {
          "internalType": "bytes[]",
          "name": "calldatas",
          "type": "bytes[]"
        },
        {
          "internalType": "string",
          "name": "description",
          "type": "string"
        },
        {
          "internalType": "int64",
          "name": "nftId",
          "type": "int64"
        }
      ],
      "name": "propose",
      "outputs": [
        {
          "internalType": "uint64",
          "name": "proposalId",
          "type": "uint64"
        }
      ],
      "stateMutability": "nonpayable",
      "type": "function"
    },
    {
      "inputs": [
        {
          "internalType": "uint64",
          "name": "proposalId",
          "type": "uint64"
        }
      ],
      "name": "queue",
      "outputs": [],
      "stateMutability": "nonpayable",
      "type": "function"
    },
    {
      "inputs": [
        {
          "internalType": "uint64",
          "name": "proposalId",
          "type": "uint64"
        }
      ],
      "name": "state",
      "outputs": [
        {
          "internalType": "enum Governor.ProposalState",
          "name": "",
          "type": "uint8"
        }
      ],
      "stateMutability": "view",
      "type": "function"
    },
    {
      "stateMutability": "payable",
      "type": "receive"
    }
  ],
  "bytecode": "0x610100604052600080546001600160501b0319166703f48000000151801790553480156200002c57600080fd5b50604051620035ff380380620035ff8339810160408190526200004f916200008f565b6001600160a01b0393841660805291831660a052821660c0521660e052620000ec565b80516001600160a01b03811681146200008a57600080fd5b919050565b60008060008060808587031215620000a657600080fd5b620000b18562000072565b9350620000c16020860162000072565b9250620000d16040860162000072565b9150620000e16060860162000072565b905092959194509250565b60805160a05160c05160e05161345b620001a46000396000818161019c0152611a0901526000818161014b0152611928015260008181610298015281816107b901528181610cd30152818161115a015281816114f001528181611666015281816116e40152818161187001528181611aae0152611bb70152600081816103730152818161046801528181610618015281816108f7015281816109fa01528181610ef80152818161103d0152611372015261345b6000f3fe60806040526004361061012d5760003560e01c8063a6c26603116100a5578063b9a6196111610074578063da35c66411610059578063da35c664146103c8578063fc45ddcd146103ec578063ffc7397b1461040c57600080fd5b8063b9a6196114610395578063d6159fe5146103aa57600080fd5b8063a6c26603146102da578063b1610d7e14610311578063b590be771461034e578063b91cf1e51461036157600080fd5b80632df23d15116100fc57806370323bdb116100e157806370323bdb1461024d5780637aadef8b14610286578063926c46b2146102ba57600080fd5b80632df23d15146102005780634c125e791461022d57600080fd5b80631a32af02146101395780631fda9a021461018a5780632b011e24146101be5780632d4c7bd3146101e057600080fd5b3661013457005b600080fd5b34801561014557600080fd5b5061016d7f000000000000000000000000000000000000000000000000000000000000000081565b6040516001600160a01b0390911681526020015b60405180910390f35b34801561019657600080fd5b5061016d7f000000000000000000000000000000000000000000000000000000000000000081565b3480156101ca57600080fd5b506101de6101d9366004611db9565b610440565b005b3480156101ec57600080fd5b506101de6101fb366004611e17565b6107ae565b34801561020c57600080fd5b5061022061021b366004611e3b565b6108c3565b6040516101819190611e6e565b34801561023957600080fd5b506101de610248366004611e3b565b6109d2565b34801561025957600080fd5b5061026d610268366004612232565b610c2a565b60405167ffffffffffffffff9091168152602001610181565b34801561029257600080fd5b5061016d7f000000000000000000000000000000000000000000000000000000000000000081565b3480156102c657600080fd5b506101de6102d5366004611e3b565b611015565b3480156102e657600080fd5b506102f4655af3107a400081565b6040516bffffffffffffffffffffffff9091168152602001610181565b34801561031d57600080fd5b506000546103389065010000000000900464ffffffffff1681565b60405164ffffffffff9091168152602001610181565b6101de61035c366004611e3b565b61134a565b34801561036d57600080fd5b5061016d7f000000000000000000000000000000000000000000000000000000000000000081565b3480156103a157600080fd5b506101de611664565b3480156103b657600080fd5b506000546103389064ffffffffff1681565b3480156103d457600080fd5b506103de60015481565b604051908152602001610181565b3480156103f857600080fd5b506101de610407366004611e17565b6116d9565b34801561041857600080fd5b50610338610427366004612313565b60026020526000908152604090205464ffffffffff1681565b604051639876dc2160e01b815230600482015267ffffffffffffffff841660248201526000907f00000000000000000000000000000000000000000000000000000000000000006001600160a01b031690639876dc2190604401602060405180830381865afa1580156104b7573d6000803e3d6000fd5b505050506040513d601f19601f820116820180604052508101906104db919061233b565b90506000816001600160a01b031663b9e2bea06040518163ffffffff1660e01b8152600401600060405180830381865afa15801561051d573d6000803e3d6000fd5b505050506040513d6000823e601f3d908101601f1916820160405261054591908101906125cd565b90506001610552826117c2565b600781111561056357610563611e58565b146105815760405163baf3f0f760e01b815260040160405180910390fd5b61058a83611922565b600061059a848360e00151611990565b9050806bffffffffffffffffffffffff166000036105cb57604051633048076b60e11b815260040160405180910390fd5b6040517fc29a22c400000000000000000000000000000000000000000000000000000000815267ffffffffffffffff87166004820152600785900b60248201526000906001600160a01b037f0000000000000000000000000000000000000000000000000000000000000000169063c29a22c4906044016020604051808303816000875af1158015610661573d6000803e3d6000fd5b505050506040513d601f19601f82011682018060405250810190610685919061233b565b6001600160a01b0316036106c5576040517f667a709a00000000000000000000000000000000000000000000000000000000815260040160405180910390fd5b6040517fd26424950000000000000000000000000000000000000000000000000000000081526bffffffffffffffffffffffff8216600482015285151560248201526001600160a01b0384169063d264249590604401600060405180830381600087803b15801561073557600080fd5b505af1158015610749573d6000803e3d6000fd5b50506040805167ffffffffffffffff8a16815288151560208201526bffffffffffffffffffffffff85168183015290517fab2f5ddd7116794a68bdc6c3e14b18b5888ce4f48fdea983f4a1032a24a7989b9350908190036060019150a1505050505050565b336001600160a01b037f000000000000000000000000000000000000000000000000000000000000000016146107f757604051634a7f394f60e01b815260040160405180910390fd5b6203f4808164ffffffffff16101561082257604051634a7f394f60e01b815260040160405180910390fd5b62278d008164ffffffffff16111561084d57604051634a7f394f60e01b815260040160405180910390fd5b600080547fffffffffffffffffffffffffffffffffffffffffffff0000000000ffffffffff166501000000000064ffffffffff8416908102919091179091556040519081527fc6bdba91ad0eaeaaa3026c197783f40dff7571fd0e71402de571b9c508329db6906020015b60405180910390a150565b604051639876dc2160e01b815230600482015267ffffffffffffffff821660248201526000906109cc906001600160a01b037f00000000000000000000000000000000000000000000000000000000000000001690639876dc2190604401602060405180830381865afa15801561093e573d6000803e3d6000fd5b505050506040513d601f19601f82011682018060405250810190610962919061233b565b6001600160a01b031663b9e2bea06040518163ffffffff1660e01b8152600401600060405180830381865afa15801561099f573d6000803e3d6000fd5b505050506040513d6000823e601f3d908101601f191682016040526109c791908101906125cd565b6117c2565b92915050565b604051639876dc2160e01b815230600482015267ffffffffffffffff821660248201526000907f00000000000000000000000000000000000000000000000000000000000000006001600160a01b031690639876dc2190604401602060405180830381865afa158015610a49573d6000803e3d6000fd5b505050506040513d601f19601f82011682018060405250810190610a6d919061233b565b90506000816001600160a01b031663b9e2bea06040518163ffffffff1660e01b8152600401600060405180830381865afa158015610aaf573d6000803e3d6000fd5b505050506040513d6000823e601f3d908101601f19168201604052610ad791908101906125cd565b90506000610ae4826117c2565b90506007816007811115610afa57610afa611e58565b03610b185760405163baf3f0f760e01b815260040160405180910390fd5b655af3107a40006bffffffffffffffffffffffff16610b3b836080015142611990565b6bffffffffffffffffffffffff1610610b92576000816007811115610b6257610b62611e58565b03610b7957610b748260800151611922565b610b92565b60405163baf3f0f760e01b815260040160405180910390fd5b826001600160a01b031663be7087876040518163ffffffff1660e01b8152600401600060405180830381600087803b158015610bcd57600080fd5b505af1158015610be1573d6000803e3d6000fd5b505060405167ffffffffffffffff871681527fe5c6a12e7989e74f4c07006b06767eae6da096502bba0f69213882f71242aab2925060200190505b60405180910390a150505050565b600085518751141580610c3f57508451875114155b80610c4c57508351875114155b15610c6a57604051634a7f394f60e01b815260040160405180910390fd5b600a87511115610c8d57604051634a7f394f60e01b815260040160405180910390fd5b610c9682611922565b60008054610cab9064ffffffffff1642612753565b6000805491925090610ccd9065010000000000900464ffffffffff1683612753565b905060007f00000000000000000000000000000000000000000000000000000000000000006001600160a01b0316636a42b8f86040518163ffffffff1660e01b8152600401602060405180830381865afa158015610d2f573d6000803e3d6000fd5b505050506040513d601f19601f82011682018060405250810190610d53919061277c565b600054610d729064ffffffffff65010000000000820481169116612753565b610d7c9190612753565b9050655af3107a4000610d9886610d938442612795565b611990565b6bffffffffffffffffffffffff161015610dc557604051633048076b60e11b815260040160405180910390fd5b600785900b60009081526002602052604090205464ffffffffff16421015610e0057604051633048076b60e11b815260040160405180910390fd5b610e0a8142612753565b600786900b6000908152600260205260408120805464ffffffffff191664ffffffffff939093169290921790915560018054909190610e48906127bb565b91829055506040805161018081018252600060a0820181905260c08201819052610120820181905261014082018190526101608201528c8152602081018c90528082018b9052606081018a9052600788900b608082015264ffffffffff86811660e0830152851661010082015290517f422da95400000000000000000000000000000000000000000000000000000000815267ffffffffffffffff83166004820152919550906001600160a01b037f0000000000000000000000000000000000000000000000000000000000000000169063422da954906024016020604051808303816000875af1158015610f41573d6000803e3d6000fd5b505050506040513d601f19601f82011682018060405250810190610f65919061233b565b6001600160a01b03166363ec07c0826040518263ffffffff1660e01b8152600401610f9091906128e8565b600060405180830381600087803b158015610faa57600080fd5b505af1158015610fbe573d6000803e3d6000fd5b505050507f20d9b108f8538dcfcbae90dfbf2df4a0b7df3ec4a7f38db98fea51298228a575858c8c8c8c89898e604051610fff989796959493929190612a21565b60405180910390a1505050509695505050505050565b604051639876dc2160e01b815230600482015267ffffffffffffffff821660248201526000907f00000000000000000000000000000000000000000000000000000000000000006001600160a01b031690639876dc2190604401602060405180830381865afa15801561108c573d6000803e3d6000fd5b505050506040513d601f19601f820116820180604052508101906110b0919061233b565b90506000816001600160a01b031663b9e2bea06040518163ffffffff1660e01b8152600401600060405180830381865afa1580156110f2573d6000803e3d6000fd5b505050506040513d6000823e601f3d908101601f1916820160405261111a91908101906125cd565b90506004611127826117c2565b600781111561113857611138611e58565b146111565760405163baf3f0f760e01b815260040160405180910390fd5b60007f00000000000000000000000000000000000000000000000000000000000000006001600160a01b0316636a42b8f86040518163ffffffff1660e01b8152600401602060405180830381865afa1580156111b6573d6000803e3d6000fd5b505050506040513d601f19601f820116820180604052508101906111da919061277c565b6111e49042612ab9565b6040517f2c55132a00000000000000000000000000000000000000000000000000000000815264ffffffffff821660048201529091506001600160a01b03841690632c55132a90602401600060405180830381600087803b15801561124857600080fd5b505af115801561125c573d6000803e3d6000fd5b50508351519150600090505b818110156112f9576112f18460000151828151811061128957611289612ad1565b6020026020010151856020015183815181106112a7576112a7612ad1565b6020026020010151866040015184815181106112c5576112c5612ad1565b6020026020010151876060015185815181106112e3576112e3612ad1565b602002602001015187611aac565b600101611268565b506040805167ffffffffffffffff8716815264ffffffffff841660208201527ffd77b3148cb69f934b0fb64fb5f6dbc650c23d1aaaf91d12bb52d78923c41308910160405180910390a15050505050565b604051639876dc2160e01b815230600482015267ffffffffffffffff821660248201526000907f00000000000000000000000000000000000000000000000000000000000000006001600160a01b031690639876dc2190604401602060405180830381865afa1580156113c1573d6000803e3d6000fd5b505050506040513d601f19601f820116820180604052508101906113e5919061233b565b90506000816001600160a01b031663b9e2bea06040518163ffffffff1660e01b8152600401600060405180830381865afa158015611427573d6000803e3d6000fd5b505050506040513d6000823e601f3d908101601f1916820160405261144f91908101906125cd565b9050600561145c826117c2565b600781111561146d5761146d611e58565b1461148b5760405163baf3f0f760e01b815260040160405180910390fd5b816001600160a01b031663a78cac156040518163ffffffff1660e01b8152600401600060405180830381600087803b1580156114c657600080fd5b505af11580156114da573d6000803e3d6000fd5b50508251519150600090505b81811015611629577f00000000000000000000000000000000000000000000000000000000000000006001600160a01b0316630825f38f8460200151838151811061153357611533612ad1565b60200260200101518560000151848151811061155157611551612ad1565b60200260200101518660200151858151811061156f5761156f612ad1565b60200260200101518760400151868151811061158d5761158d612ad1565b6020026020010151886060015187815181106115ab576115ab612ad1565b60200260200101518961012001516040518763ffffffff1660e01b81526004016115d9959493929190612ae7565b60006040518083038185885af11580156115f7573d6000803e3d6000fd5b50505050506040513d6000823e601f3d908101601f191682016040526116209190810190612b3b565b506001016114e6565b5060405167ffffffffffffffff851681527f2b3962140cfad697e04b60d47af771de8568e6ead5f42b8873c4a8d12bd2b3c790602001610c1c565b7f00000000000000000000000000000000000000000000000000000000000000006001600160a01b0316630e18b6816040518163ffffffff1660e01b8152600401600060405180830381600087803b1580156116bf57600080fd5b505af11580156116d3573d6000803e3d6000fd5b50505050565b336001600160a01b037f0000000000000000000000000000000000000000000000000000000000000000161461172257604051634a7f394f60e01b815260040160405180910390fd5b620151808164ffffffffff16101561174d57604051634a7f394f60e01b815260040160405180910390fd5b62093a808164ffffffffff16111561177857604051634a7f394f60e01b815260040160405180910390fd5b6000805464ffffffffff191664ffffffffff83169081179091556040519081527f4b9e05d03a781f25fd55d65f8a28c7452e1ecb4a70c2b761bbfe0d9fb8a9d3cb906020016108b8565b6000816101600151156117d757506002919050565b8160e0015164ffffffffff1642116117f157506000919050565b81610100015164ffffffffff16421161180c57506001919050565b8160c001516bffffffffffffffffffffffff168260a001516bffffffffffffffffffffffff161161183f57506003919050565b81610120015164ffffffffff1660000361185b57506004919050565b8161014001511561186e57506007919050565b7f00000000000000000000000000000000000000000000000000000000000000006001600160a01b031663c1a287e26040518163ffffffff1660e01b8152600401602060405180830381865afa1580156118cc573d6000803e3d6000fd5b505050506040513d601f19601f820116820180604052508101906118f0919061277c565b82610120015164ffffffffff166119079190612ab9565b421061191557506006919050565b506005919050565b919050565b3361194d7f000000000000000000000000000000000000000000000000000000000000000083611c3f565b6001600160a01b03161461198d576040517f49e27cff00000000000000000000000000000000000000000000000000000000815260040160405180910390fd5b50565b6000808360070b136119ce576040517f0f3e2a3e00000000000000000000000000000000000000000000000000000000815260040160405180910390fd5b6040517f99fbab8800000000000000000000000000000000000000000000000000000000815267ffffffffffffffff841660048201526000907f00000000000000000000000000000000000000000000000000000000000000006001600160a01b0316906399fbab889060240160e060405180830381865afa158015611a58573d6000803e3d6000fd5b505050506040513d601f19601f82011682018060405250810190611a7c9190612b86565b90508264ffffffffff16816060015165ffffffffffff161015611aa257515190506109cc565b5060009392505050565b7f00000000000000000000000000000000000000000000000000000000000000006001600160a01b031663f2b065378686868686604051602001611af4959493929190612ae7565b604051602081830303815290604052805190602001206040518263ffffffff1660e01b8152600401611b2891815260200190565b602060405180830381865afa158015611b45573d6000803e3d6000fd5b505050506040513d601f19601f82011682018060405250810190611b699190612c63565b15611b875760405163baf3f0f760e01b815260040160405180910390fd5b6040517f3a66f9010000000000000000000000000000000000000000000000000000000081526001600160a01b037f00000000000000000000000000000000000000000000000000000000000000001690633a66f90190611bf49088908890889088908890600401612ae7565b6020604051808303816000875af1158015611c13573d6000803e3d6000fd5b505050506040513d601f19601f82011682018060405250810190611c37919061277c565b505050505050565b604080516001600160a01b0384166024820152600783900b60448083019190915282518083039091018152606490910182526020810180517bffffffffffffffffffffffffffffffffffffffffffffffffffffffff167f287e1da8000000000000000000000000000000000000000000000000000000001790529051600091829161016791611ccd91612c80565b6000604051808303816000865af19150503d8060008114611d0a576040519150601f19603f3d011682016040523d82523d6000602084013e611d0f565b606091505b5091505060008082806020019051810190611d2a9190613334565b91509150601660030b8260030b14611d6e576040517f64c3c24900000000000000000000000000000000000000000000000000000000815260040160405180910390fd5b6040015195945050505050565b67ffffffffffffffff8116811461198d57600080fd5b801515811461198d57600080fd5b8060070b811461198d57600080fd5b803561191d81611d9f565b600080600060608486031215611dce57600080fd5b8335611dd981611d7b565b92506020840135611de981611d91565b91506040840135611df981611d9f565b809150509250925092565b64ffffffffff8116811461198d57600080fd5b600060208284031215611e2957600080fd5b8135611e3481611e04565b9392505050565b600060208284031215611e4d57600080fd5b8135611e3481611d7b565b634e487b7160e01b600052602160045260246000fd5b6020810160088310611e9057634e487b7160e01b600052602160045260246000fd5b91905290565b634e487b7160e01b600052604160045260246000fd5b604051610180810167ffffffffffffffff81118282101715611ed057611ed0611e96565b60405290565b6040805190810167ffffffffffffffff81118282101715611ed057611ed0611e96565b60405160a0810167ffffffffffffffff81118282101715611ed057611ed0611e96565b604051610120810167ffffffffffffffff81118282101715611ed057611ed0611e96565b60405160c0810167ffffffffffffffff81118282101715611ed057611ed0611e96565b604051601f8201601f1916810167ffffffffffffffff81118282101715611f8c57611f8c611e96565b604052919050565b600067ffffffffffffffff821115611fae57611fae611e96565b5060051b60200190565b6001600160a01b038116811461198d57600080fd5b600082601f830112611fde57600080fd5b81356020611ff3611fee83611f94565b611f63565b82815260059290921b8401810191818101908684111561201257600080fd5b8286015b8481101561203657803561202981611fb8565b8352918301918301612016565b509695505050505050565b600082601f83011261205257600080fd5b81356020612062611fee83611f94565b82815260059290921b8401810191818101908684111561208157600080fd5b8286015b848110156120365780358352918301918301612085565b600067ffffffffffffffff8211156120b6576120b6611e96565b50601f01601f191660200190565b60006120d2611fee8461209c565b90508281528383830111156120e657600080fd5b828260208301376000602084830101529392505050565b600082601f83011261210e57600080fd5b611e34838335602085016120c4565b600082601f83011261212e57600080fd5b8135602061213e611fee83611f94565b82815260059290921b8401810191818101908684111561215d57600080fd5b8286015b8481101561203657803567ffffffffffffffff8111156121815760008081fd5b61218f8986838b01016120fd565b845250918301918301612161565b600082601f8301126121ae57600080fd5b813560206121be611fee83611f94565b82815260059290921b840181019181810190868411156121dd57600080fd5b8286015b8481101561203657803567ffffffffffffffff8111156122015760008081fd5b8701603f810189136122135760008081fd5b6122248986830135604084016120c4565b8452509183019183016121e1565b60008060008060008060c0878903121561224b57600080fd5b863567ffffffffffffffff8082111561226357600080fd5b61226f8a838b01611fcd565b9750602089013591508082111561228557600080fd5b6122918a838b01612041565b965060408901359150808211156122a757600080fd5b6122b38a838b0161211d565b955060608901359150808211156122c957600080fd5b6122d58a838b0161219d565b945060808901359150808211156122eb57600080fd5b506122f889828a016120fd565b92505061230760a08801611dae565b90509295509295509295565b60006020828403121561232557600080fd5b8135611e3481611d9f565b805161191d81611fb8565b60006020828403121561234d57600080fd5b8151611e3481611fb8565b600082601f83011261236957600080fd5b81516020612379611fee83611f94565b82815260059290921b8401810191818101908684111561239857600080fd5b8286015b848110156120365780516123af81611fb8565b835291830191830161239c565b600082601f8301126123cd57600080fd5b815160206123dd611fee83611f94565b82815260059290921b840181019181810190868411156123fc57600080fd5b8286015b848110156120365780518352918301918301612400565b60005b8381101561243257818101518382015260200161241a565b838111156116d35750506000910152565b600082601f83011261245457600080fd5b8151612462611fee8261209c565b81815284602083860101111561247757600080fd5b612488826020830160208701612417565b949350505050565b600082601f8301126124a157600080fd5b815160206124b1611fee83611f94565b82815260059290921b840181019181810190868411156124d057600080fd5b8286015b8481101561203657805167ffffffffffffffff8111156124f45760008081fd5b6125028986838b0101612443565b8452509183019183016124d4565b600082601f83011261252157600080fd5b81516020612531611fee83611f94565b82815260059290921b8401810191818101908684111561255057600080fd5b8286015b8481101561203657805167ffffffffffffffff8111156125745760008081fd5b6125828986838b0101612443565b845250918301918301612554565b805161191d81611d9f565b80516bffffffffffffffffffffffff8116811461191d57600080fd5b805161191d81611e04565b805161191d81611d91565b6000602082840312156125df57600080fd5b815167ffffffffffffffff808211156125f757600080fd5b90830190610180828603121561260c57600080fd5b612614611eac565b82518281111561262357600080fd5b61262f87828601612358565b82525060208301518281111561264457600080fd5b612650878286016123bc565b60208301525060408301518281111561266857600080fd5b61267487828601612490565b60408301525060608301518281111561268c57600080fd5b61269887828601612510565b6060830152506126aa60808401612590565b60808201526126bb60a0840161259b565b60a08201526126cc60c0840161259b565b60c08201526126dd60e084016125b7565b60e082015261010091506126f28284016125b7565b8282015261012091506127068284016125b7565b82820152610140915061271a8284016125c2565b82820152610160915061272e8284016125c2565b91810191909152949350505050565b634e487b7160e01b600052601160045260246000fd5b600064ffffffffff8083168185168083038211156127735761277361273d565b01949350505050565b60006020828403121561278e57600080fd5b5051919050565b600064ffffffffff838116908316818110156127b3576127b361273d565b039392505050565b60007fffffffffffffffffffffffffffffffffffffffffffffffffffffffffffffffff82036127ec576127ec61273d565b5060010190565b600081518084526020808501945080840160005b8381101561282c5781516001600160a01b031687529582019590820190600101612807565b509495945050505050565b600081518084526020808501945080840160005b8381101561282c5781518752958201959082019060010161284b565b6000815180845261287f816020860160208601612417565b601f01601f19169290920160200192915050565b600081518084526020808501808196508360051b8101915082860160005b858110156128db5782840389526128c9848351612867565b988501989350908401906001016128b1565b5091979650505050505050565b60208152600082516101808060208501526129076101a08501836127f3565b91506020850151601f19808685030160408701526129258483612837565b935060408701519150808685030160608701526129428483612893565b93506060870151915080868503016080870152506129608382612893565b925050608085015161297760a086018260070b9052565b5060a08501516bffffffffffffffffffffffff811660c08601525060c08501516bffffffffffffffffffffffff811660e08601525060e08501516101006129c68187018364ffffffffff169052565b86015190506101206129e08682018364ffffffffff169052565b86015190506101406129fa8682018364ffffffffff169052565b8601519050610160612a0f8682018315159052565b90950151151593019290925250919050565b600061010067ffffffffffffffff8b168352806020840152612a458184018b6127f3565b90508281036040840152612a59818a612837565b90508281036060840152612a6d8189612893565b90508281036080840152612a818188612893565b64ffffffffff87811660a0860152861660c085015283810360e08501529050612aaa8185612867565b9b9a5050505050505050505050565b60008219821115612acc57612acc61273d565b500190565b634e487b7160e01b600052603260045260246000fd5b6001600160a01b038616815284602082015260a060408201526000612b0f60a0830186612867565b8281036060840152612b218186612867565b91505064ffffffffff831660808301529695505050505050565b600060208284031215612b4d57600080fd5b815167ffffffffffffffff811115612b6457600080fd5b61248884828501612443565b805165ffffffffffff8116811461191d57600080fd5b600081830360e0811215612b9957600080fd5b612ba1611ef9565b6040821215612baf57600080fd5b612bb7611ed6565b612bc08561259b565b81526020850151612bd081611fb8565b6020820152815260407fffffffffffffffffffffffffffffffffffffffffffffffffffffffffffffffc083011215612c0757600080fd5b612c0f611ed6565b91506040840151825260608401516020830152816020820152612c3460808501612330565b6040820152612c4560a08501612b70565b6060820152612c5660c08501612b70565b6080820152949350505050565b600060208284031215612c7557600080fd5b8151611e3481611d91565b60008251612c92818460208701612417565b9190910192915050565b600082601f830112612cad57600080fd5b81516020612cbd611fee83611f94565b82815260059290921b84018101918181019086841115612cdc57600080fd5b8286015b8481101561203657805167ffffffffffffffff80821115612d0057600080fd5b81890191506040601f198181858e03011215612d1b57600080fd5b612d23611ed6565b8885015181528285015184811115612d3a57600080fd5b949094019360a0858e0383011215612d525760008081fd5b612d5a611ef9565b915088850151612d6981611d91565b825284830151612d7881611fb8565b828a015260608581015185811115612d905760008081fd5b612d9e8f8c838a0101612443565b8585015250608093508386015185811115612db95760008081fd5b612dc78f8c838a0101612443565b828501525050612dd960a08601612330565b928201929092528188015285525050918301918301612ce0565b805163ffffffff8116811461191d57600080fd5b600060608284031215612e1957600080fd5b6040516060810181811067ffffffffffffffff82111715612e3c57612e3c611e96565b604052905080612e4b83612df3565b81526020830151612e5b81611fb8565b6020820152612e6c60408401612df3565b60408201525092915050565b60006101608284031215612e8b57600080fd5b612e93611f1c565b9050815167ffffffffffffffff80821115612ead57600080fd5b612eb985838601612443565b83526020840151915080821115612ecf57600080fd5b612edb85838601612443565b6020840152612eec60408501612330565b60408401526060840151915080821115612f0557600080fd5b612f1185838601612443565b6060840152612f22608085016125c2565b6080840152612f3360a08501612590565b60a0840152612f4460c085016125c2565b60c084015260e0840151915080821115612f5d57600080fd5b50612f6a84828501612c9c565b60e083015250610100612f7f84828501612e07565b9082015292915050565b805161191d81611d7b565b600082601f830112612fa557600080fd5b81516020612fb5611fee83611f94565b82815260a09283028501820192828201919087851115612fd457600080fd5b8387015b8581101561305a5781818a031215612ff05760008081fd5b612ff8611ef9565b61300182612df3565b81528582015161301081611fb8565b8187015260408281015161302381611d91565b9082015260608281015161303681611d91565b9082015260808281015161304981611fb8565b908201528452928401928101612fd8565b5090979650505050505050565b600082601f83011261307857600080fd5b81516020613088611fee83611f94565b82815260c092830285018201928282019190878511156130a757600080fd5b8387015b8581101561305a5781818a0312156130c35760008081fd5b6130cb611f40565b6130d482612df3565b81526130e1868301612df3565b8682015260406130f2818401612df3565b908201526060613103838201612df3565b9082015260808281015161311681611d91565b9082015260a08281015161312981611fb8565b9082015284529284019281016130ab565b600082601f83011261314b57600080fd5b8151602061315b611fee83611f94565b82815260c0928302850182019282820191908785111561317a57600080fd5b8387015b8581101561305a5781818a0312156131965760008081fd5b61319e611f40565b6131a782612df3565b81526131b4868301612df3565b8682015260406131c5818401612df3565b908201526060828101516131d881611fb8565b908201526080828101516131eb81611d91565b9082015260a0828101516131fe81611fb8565b90820152845292840192810161317e565b6000610120828403121561322257600080fd5b61322a611f1c565b9050815167ffffffffffffffff8082111561324457600080fd5b61325085838601612e78565b835261325e60208501612f89565b602084015261326f604085016125c2565b6040840152613280606085016125c2565b6060840152613291608085016125c2565b608084015260a08401519150808211156132aa57600080fd5b6132b685838601612f94565b60a084015260c08401519150808211156132cf57600080fd5b6132db85838601613067565b60c084015260e08401519150808211156132f457600080fd5b6133008583860161313a565b60e08401526101009150818401518181111561331b57600080fd5b61332786828701612443565b8385015250505092915050565b6000806040838503121561334757600080fd5b82518060030b811461335857600080fd5b602084015190925067ffffffffffffffff8082111561337657600080fd5b9084019060c0828703121561338a57600080fd5b613392611f40565b8251828111156133a157600080fd5b6133ad8882860161320f565b8252506133bc60208401612590565b60208201526133cd60408401612330565b60408201526133de60608401612590565b60608201526080830151828111156133f557600080fd5b61340188828601612443565b60808301525061341360a08401612330565b60a0820152809350505050925092905056fea26469706673582212202a84f9c04c4dd3e26472ca71344e2e58286714260ea135198db3789e209a5bf964736f6c634300080f0033",
  "linkReferences": {},
  "deployedLinkReferences": {}
}